{
  "_format": "hh-sol-artifact-1",
  "contractName": "CryptoNauts",
  "sourceName": "contracts/CryptoNauts.sol",
  "abi": [
    {
      "inputs": [],
      "stateMutability": "nonpayable",
      "type": "constructor"
    },
    {
      "anonymous": false,
      "inputs": [
        {
          "indexed": false,
          "internalType": "uint256",
          "name": "id",
          "type": "uint256"
        }
      ],
      "name": "NautsDeleted",
      "type": "event"
    },
    {
      "anonymous": false,
      "inputs": [
        {
          "indexed": false,
          "internalType": "uint256",
          "name": "id",
          "type": "uint256"
        },
        {
          "indexed": false,
          "internalType": "string",
          "name": "name",
          "type": "string"
        },
        {
          "indexed": false,
          "internalType": "string",
          "name": "role",
          "type": "string"
        }
      ],
      "name": "NautsInfo",
      "type": "event"
    },
    {
      "inputs": [
        {
          "internalType": "string",
          "name": "_email",
          "type": "string"
        },
        {
          "internalType": "string",
          "name": "_name",
          "type": "string"
        },
        {
          "internalType": "string",
          "name": "role",
          "type": "string"
        }
      ],
      "name": "createNauts",
      "outputs": [],
      "stateMutability": "nonpayable",
      "type": "function"
    },
    {
      "inputs": [
        {
          "internalType": "uint256",
          "name": "id",
          "type": "uint256"
        }
      ],
      "name": "deleteNauts",
      "outputs": [],
      "stateMutability": "nonpayable",
      "type": "function"
    },
    {
      "inputs": [],
      "name": "getAllNauts",
      "outputs": [
        {
          "components": [
            {
              "internalType": "string",
              "name": "email",
              "type": "string"
            },
            {
              "internalType": "string",
              "name": "name",
              "type": "string"
            },
            {
              "internalType": "string",
              "name": "role",
              "type": "string"
            }
          ],
          "internalType": "struct CryptoNauts.Nauts[]",
          "name": "",
          "type": "tuple[]"
        }
      ],
      "stateMutability": "view",
      "type": "function"
    },
    {
      "inputs": [
        {
          "internalType": "uint256",
          "name": "id",
          "type": "uint256"
        }
      ],
      "name": "getNauts",
      "outputs": [
        {
          "internalType": "string",
          "name": "",
          "type": "string"
        },
        {
          "internalType": "string",
          "name": "",
          "type": "string"
        }
      ],
      "stateMutability": "view",
      "type": "function"
    },
    {
      "inputs": [],
      "name": "getNautsCount",
      "outputs": [
        {
          "internalType": "uint256",
          "name": "",
          "type": "uint256"
        }
      ],
      "stateMutability": "view",
      "type": "function"
    },
    {
      "inputs": [
        {
          "internalType": "string",
          "name": "_email",
          "type": "string"
        }
      ],
      "name": "nautsExistsByEmail",
      "outputs": [
        {
          "internalType": "bool",
          "name": "",
          "type": "bool"
        }
      ],
      "stateMutability": "view",
      "type": "function"
    },
    {
      "inputs": [
        {
          "internalType": "uint256",
          "name": "id",
          "type": "uint256"
        },
        {
          "internalType": "string",
          "name": "_newEmail",
          "type": "string"
        },
        {
          "internalType": "string",
          "name": "_newName",
          "type": "string"
        },
        {
          "internalType": "string",
          "name": "_newRole",
          "type": "string"
        }
      ],
      "name": "updateNauts",
      "outputs": [],
      "stateMutability": "nonpayable",
      "type": "function"
    }
  ],
  "bytecode": "0x60a060405234801561001057600080fd5b503373ffffffffffffffffffffffffffffffffffffffff1660808173ffffffffffffffffffffffffffffffffffffffff16815250506040518060400160405280601e81526020017f66656c697065636f727265696173696c7661406f75746c6f6f6b2e636f6d000081525060016000808152602001908152602001600020600001908161009d91906103cd565b506040518060400160405280601481526020017f46656c69706520436f72726569612053696c76610000000000000000000000008152506001600080815260200190815260200160002060010190816100f691906103cd565b506040518060400160405280601881526020017f446573656e766f6c7665646f722046756c6c20537461636b000000000000000081525060016000808152602001908152602001600020600201908161014f91906103cd565b506000808060018154018082558091505060019003906000526020600020016000909190919091505561049f565b600081519050919050565b7f4e487b7100000000000000000000000000000000000000000000000000000000600052604160045260246000fd5b7f4e487b7100000000000000000000000000000000000000000000000000000000600052602260045260246000fd5b600060028204905060018216806101fe57607f821691505b602082108103610211576102106101b7565b5b50919050565b60008190508160005260206000209050919050565b60006020601f8301049050919050565b600082821b905092915050565b6000600883026102797fffffffffffffffffffffffffffffffffffffffffffffffffffffffffffffffff8261023c565b610283868361023c565b95508019841693508086168417925050509392505050565b6000819050919050565b6000819050919050565b60006102ca6102c56102c08461029b565b6102a5565b61029b565b9050919050565b6000819050919050565b6102e4836102af565b6102f86102f0826102d1565b848454610249565b825550505050565b600090565b61030d610300565b6103188184846102db565b505050565b5b8181101561033c57610331600082610305565b60018101905061031e565b5050565b601f8211156103815761035281610217565b61035b8461022c565b8101602085101561036a578190505b61037e6103768561022c565b83018261031d565b50505b505050565b600082821c905092915050565b60006103a460001984600802610386565b1980831691505092915050565b60006103bd8383610393565b9150826002028217905092915050565b6103d68261017d565b67ffffffffffffffff8111156103ef576103ee610188565b5b6103f982546101e6565b610404828285610340565b600060209050601f8311600181146104375760008415610425578287015190505b61042f85826103b1565b865550610497565b601f19841661044586610217565b60005b8281101561046d57848901518255600182019150602085019450602081019050610448565b8683101561048a5784890151610486601f891682610393565b8355505b6001600288020188555050505b505050505050565b608051611d746104c86000396000818161031e015281816108dd0152610c240152611d746000f3fe608060405234801561001057600080fd5b506004361061007d5760003560e01c80637ba922521161005b5780637ba92252146100ed57806387d20eec1461010b57806390952fdf1461013b578063ac1b4948146101575761007d565b806337747c0f14610082578063413d2f2a146100b357806356a945c7146100cf575b600080fd5b61009c60048036038101906100979190610fd9565b610173565b6040516100aa929190611096565b60405180910390f35b6100cd60048036038101906100c89190610fd9565b61031c565b005b6100d7610551565b6040516100e491906110dc565b60405180910390f35b6100f561055d565b6040516101029190611261565b60405180910390f35b610125600480360381019061012091906112e8565b6107ef565b6040516101329190611350565b60405180910390f35b6101556004803603810190610150919061136b565b6108db565b005b610171600480360381019061016c919061141f565b610c22565b005b606080600060016000858152602001908152602001600020600101805461019990611517565b9050116101db576040517f08c379a00000000000000000000000000000000000000000000000000000000081526004016101d290611594565b60405180910390fd5b6000600160008581526020019081526020016000209050806001018160020181805461020690611517565b80601f016020809104026020016040519081016040528092919081815260200182805461023290611517565b801561027f5780601f106102545761010080835404028352916020019161027f565b820191906000526020600020905b81548152906001019060200180831161026257829003601f168201915b5050505050915080805461029290611517565b80601f01602080910402602001604051908101604052809291908181526020018280546102be90611517565b801561030b5780601f106102e05761010080835404028352916020019161030b565b820191906000526020600020905b8154815290600101906020018083116102ee57829003601f168201915b505050505090509250925050915091565b7f000000000000000000000000000000000000000000000000000000000000000073ffffffffffffffffffffffffffffffffffffffff163373ffffffffffffffffffffffffffffffffffffffff16146103aa576040517f08c379a00000000000000000000000000000000000000000000000000000000081526004016103a190611626565b60405180910390fd5b60006001600083815260200190815260200160002060010180546103cd90611517565b90501161040f576040517f08c379a000000000000000000000000000000000000000000000000000000000815260040161040690611594565b60405180910390fd5b60016000828152602001908152602001600020600080820160006104339190610f1b565b6001820160006104439190610f1b565b6002820160006104539190610f1b565b505060005b60008054905081101561051657816000828154811061047a57610479611646565b5b906000526020600020015403610509576000600160008054905061049e91906116a4565b815481106104af576104ae611646565b5b9060005260206000200154600082815481106104ce576104cd611646565b5b906000526020600020018190555060008054806104ee576104ed6116d8565b5b60019003818190600052602060002001600090559055610516565b8080600101915050610458565b507fde549ccf51cdd42293a2fdbbf166f6d417621cde2d99ed9c20b085c24f0577c88160405161054691906110dc565b60405180910390a150565b60008080549050905090565b60606000808054905067ffffffffffffffff81111561057f5761057e611707565b5b6040519080825280602002602001820160405280156105b857816020015b6105a5610f5b565b81526020019060019003908161059d5790505b50905060005b6000805490508110156107e757600160008083815481106105e2576105e1611646565b5b9060005260206000200154815260200190815260200160002060405180606001604052908160008201805461061690611517565b80601f016020809104026020016040519081016040528092919081815260200182805461064290611517565b801561068f5780601f106106645761010080835404028352916020019161068f565b820191906000526020600020905b81548152906001019060200180831161067257829003601f168201915b505050505081526020016001820180546106a890611517565b80601f01602080910402602001604051908101604052809291908181526020018280546106d490611517565b80156107215780601f106106f657610100808354040283529160200191610721565b820191906000526020600020905b81548152906001019060200180831161070457829003601f168201915b5050505050815260200160028201805461073a90611517565b80601f016020809104026020016040519081016040528092919081815260200182805461076690611517565b80156107b35780601f10610788576101008083540402835291602001916107b3565b820191906000526020600020905b81548152906001019060200180831161079657829003601f168201915b5050505050815250508282815181106107cf576107ce611646565b5b602002602001018190525080806001019150506105be565b508091505090565b60008060009050600384849050101561083d576040517f08c379a0000000000000000000000000000000000000000000000000000000008152600401610834906117a8565b60405180910390fd5b60005b6000805490508110156108d057600060016000838152602001908152602001600020600001604051602001610875919061186b565b60405160208183030381529060405280519060200120868660405160200161089e9291906118b6565b6040516020818303038152906040528051906020012014905080156108c257600192505b508080600101915050610840565b508091505092915050565b7f000000000000000000000000000000000000000000000000000000000000000073ffffffffffffffffffffffffffffffffffffffff163373ffffffffffffffffffffffffffffffffffffffff1614610969576040517f08c379a000000000000000000000000000000000000000000000000000000000815260040161096090611626565b60405180910390fd5b600061097587876107ef565b905060001515811515146109be576040517f08c379a00000000000000000000000000000000000000000000000000000000081526004016109b59061191b565b60405180910390fd5b6003858590501015610a05576040517f08c379a00000000000000000000000000000000000000000000000000000000081526004016109fc906119ad565b60405180910390fd5b6003838390501015610a4c576040517f08c379a0000000000000000000000000000000000000000000000000000000008152600401610a4390611a3f565b60405180910390fd5b600080805490509080600181540180825580915050600190039060005260206000200160009091909190915055604051806060016040528088888080601f016020809104026020016040519081016040528093929190818152602001838380828437600081840152601f19601f82011690508083019250505050505050815260200186868080601f016020809104026020016040519081016040528093929190818152602001838380828437600081840152601f19601f82011690508083019250505050505050815260200184848080601f016020809104026020016040519081016040528093929190818152602001838380828437600081840152601f19601f82011690508083019250505050505050815250600160006001600080549050610b7691906116a4565b81526020019081526020016000206000820151816000019081610b999190611bf6565b506020820151816001019081610baf9190611bf6565b506040820151816002019081610bc59190611bf6565b509050507f92adf62538129b7ada01d117dfcf29b6d16fea03d827fcb9b90e6ac5da2145df6001600080549050610bfc91906116a4565b86868686604051610c11959493929190611cf5565b60405180910390a150505050505050565b7f000000000000000000000000000000000000000000000000000000000000000073ffffffffffffffffffffffffffffffffffffffff163373ffffffffffffffffffffffffffffffffffffffff1614610cb0576040517f08c379a0000000000000000000000000000000000000000000000000000000008152600401610ca790611626565b60405180910390fd5b6000610cbc87876107ef565b90506003858590501015610d05576040517f08c379a0000000000000000000000000000000000000000000000000000000008152600401610cfc906119ad565b60405180910390fd5b6003838390501015610d4c576040517f08c379a0000000000000000000000000000000000000000000000000000000008152600401610d4390611a3f565b60405180910390fd5b6000151581151514610d93576040517f08c379a0000000000000000000000000000000000000000000000000000000008152600401610d8a9061191b565b60405180910390fd5b604051806060016040528088888080601f016020809104026020016040519081016040528093929190818152602001838380828437600081840152601f19601f82011690508083019250505050505050815260200186868080601f016020809104026020016040519081016040528093929190818152602001838380828437600081840152601f19601f82011690508083019250505050505050815260200184848080601f016020809104026020016040519081016040528093929190818152602001838380828437600081840152601f19601f82011690508083019250505050505050815250600160008a81526020019081526020016000206000820151816000019081610ea29190611bf6565b506020820151816001019081610eb89190611bf6565b506040820151816002019081610ece9190611bf6565b509050507f92adf62538129b7ada01d117dfcf29b6d16fea03d827fcb9b90e6ac5da2145df8886868686604051610f09959493929190611cf5565b60405180910390a15050505050505050565b508054610f2790611517565b6000825580601f10610f395750610f58565b601f016020900490600052602060002090810190610f579190610f7c565b5b50565b60405180606001604052806060815260200160608152602001606081525090565b5b80821115610f95576000816000905550600101610f7d565b5090565b600080fd5b600080fd5b6000819050919050565b610fb681610fa3565b8114610fc157600080fd5b50565b600081359050610fd381610fad565b92915050565b600060208284031215610fef57610fee610f99565b5b6000610ffd84828501610fc4565b91505092915050565b600081519050919050565b600082825260208201905092915050565b60005b83811015611040578082015181840152602081019050611025565b60008484015250505050565b6000601f19601f8301169050919050565b600061106882611006565b6110728185611011565b9350611082818560208601611022565b61108b8161104c565b840191505092915050565b600060408201905081810360008301526110b0818561105d565b905081810360208301526110c4818461105d565b90509392505050565b6110d681610fa3565b82525050565b60006020820190506110f160008301846110cd565b92915050565b600081519050919050565b600082825260208201905092915050565b6000819050602082019050919050565b600082825260208201905092915050565b600061113f82611006565b6111498185611123565b9350611159818560208601611022565b6111628161104c565b840191505092915050565b6000606083016000830151848203600086015261118a8282611134565b915050602083015184820360208601526111a48282611134565b915050604083015184820360408601526111be8282611134565b9150508091505092915050565b60006111d7838361116d565b905092915050565b6000602082019050919050565b60006111f7826110f7565b6112018185611102565b93508360208202850161121385611113565b8060005b8581101561124f578484038952815161123085826111cb565b945061123b836111df565b925060208a01995050600181019050611217565b50829750879550505050505092915050565b6000602082019050818103600083015261127b81846111ec565b905092915050565b600080fd5b600080fd5b600080fd5b60008083601f8401126112a8576112a7611283565b5b8235905067ffffffffffffffff8111156112c5576112c4611288565b5b6020830191508360018202830111156112e1576112e061128d565b5b9250929050565b600080602083850312156112ff576112fe610f99565b5b600083013567ffffffffffffffff81111561131d5761131c610f9e565b5b61132985828601611292565b92509250509250929050565b60008115159050919050565b61134a81611335565b82525050565b60006020820190506113656000830184611341565b92915050565b6000806000806000806060878903121561138857611387610f99565b5b600087013567ffffffffffffffff8111156113a6576113a5610f9e565b5b6113b289828a01611292565b9650965050602087013567ffffffffffffffff8111156113d5576113d4610f9e565b5b6113e189828a01611292565b9450945050604087013567ffffffffffffffff81111561140457611403610f9e565b5b61141089828a01611292565b92509250509295509295509295565b60008060008060008060006080888a03121561143e5761143d610f99565b5b600061144c8a828b01610fc4565b975050602088013567ffffffffffffffff81111561146d5761146c610f9e565b5b6114798a828b01611292565b9650965050604088013567ffffffffffffffff81111561149c5761149b610f9e565b5b6114a88a828b01611292565b9450945050606088013567ffffffffffffffff8111156114cb576114ca610f9e565b5b6114d78a828b01611292565b925092505092959891949750929550565b7f4e487b7100000000000000000000000000000000000000000000000000000000600052602260045260246000fd5b6000600282049050600182168061152f57607f821691505b602082108103611542576115416114e8565b5b50919050565b7f4e61766567616e746520696e6578697374656e74650000000000000000000000600082015250565b600061157e601583611011565b915061158982611548565b602082019050919050565b600060208201905081810360008301526115ad81611571565b9050919050565b7f536f6d656e7465206f20646f6e6f20646f20636f6e747261746f20706f64652060008201527f65786563757461722e0000000000000000000000000000000000000000000000602082015250565b6000611610602983611011565b915061161b826115b4565b604082019050919050565b6000602082019050818103600083015261163f81611603565b9050919050565b7f4e487b7100000000000000000000000000000000000000000000000000000000600052603260045260246000fd5b7f4e487b7100000000000000000000000000000000000000000000000000000000600052601160045260246000fd5b60006116af82610fa3565b91506116ba83610fa3565b92508282039050818111156116d2576116d1611675565b5b92915050565b7f4e487b7100000000000000000000000000000000000000000000000000000000600052603160045260246000fd5b7f4e487b7100000000000000000000000000000000000000000000000000000000600052604160045260246000fd5b7f456d61696c207072656369736120636f6e7465722070656c6f206d656e6f732060008201527f332064696769746f730000000000000000000000000000000000000000000000602082015250565b6000611792602983611011565b915061179d82611736565b604082019050919050565b600060208201905081810360008301526117c181611785565b9050919050565b600081905092915050565b60008190508160005260206000209050919050565b600081546117f581611517565b6117ff81866117c8565b9450600182166000811461181a576001811461182f57611862565b60ff1983168652811515820286019350611862565b611838856117d3565b60005b8381101561185a5781548189015260018201915060208101905061183b565b838801955050505b50505092915050565b600061187782846117e8565b915081905092915050565b82818337600083830152505050565b600061189d83856117c8565b93506118aa838584611882565b82840190509392505050565b60006118c3828486611891565b91508190509392505050565b7f4e61766567616e7465206578697374656e746500000000000000000000000000600082015250565b6000611905601383611011565b9150611910826118cf565b602082019050919050565b60006020820190508181036000830152611934816118f8565b9050919050565b7f4e6f6d65207072656369736120636f6e7465722070656c6f206d656e6f73203360008201527f2064696769746f73000000000000000000000000000000000000000000000000602082015250565b6000611997602883611011565b91506119a28261193b565b604082019050919050565b600060208201905081810360008301526119c68161198a565b9050919050565b7f506170656c207072656369736120636f6e7465722070656c6f206d656e6f732060008201527f332064696769746f730000000000000000000000000000000000000000000000602082015250565b6000611a29602983611011565b9150611a34826119cd565b604082019050919050565b60006020820190508181036000830152611a5881611a1c565b9050919050565b60006020601f8301049050919050565b600082821b905092915050565b600060088302611aac7fffffffffffffffffffffffffffffffffffffffffffffffffffffffffffffffff82611a6f565b611ab68683611a6f565b95508019841693508086168417925050509392505050565b6000819050919050565b6000611af3611aee611ae984610fa3565b611ace565b610fa3565b9050919050565b6000819050919050565b611b0d83611ad8565b611b21611b1982611afa565b848454611a7c565b825550505050565b600090565b611b36611b29565b611b41818484611b04565b505050565b5b81811015611b6557611b5a600082611b2e565b600181019050611b47565b5050565b601f821115611baa57611b7b816117d3565b611b8484611a5f565b81016020851015611b93578190505b611ba7611b9f85611a5f565b830182611b46565b50505b505050565b600082821c905092915050565b6000611bcd60001984600802611baf565b1980831691505092915050565b6000611be68383611bbc565b9150826002028217905092915050565b611bff82611006565b67ffffffffffffffff811115611c1857611c17611707565b5b611c228254611517565b611c2d828285611b69565b600060209050601f831160018114611c605760008415611c4e578287015190505b611c588582611bda565b865550611cc0565b601f198416611c6e866117d3565b60005b82811015611c9657848901518255600182019150602085019450602081019050611c71565b86831015611cb35784890151611caf601f891682611bbc565b8355505b6001600288020188555050505b505050505050565b6000611cd48385611011565b9350611ce1838584611882565b611cea8361104c565b840190509392505050565b6000606082019050611d0a60008301886110cd565b8181036020830152611d1d818688611cc8565b90508181036040830152611d32818486611cc8565b9050969550505050505056fea2646970667358221220dac99385898c1bf10ce028d2be31b1d13cabfe5904182a6bd1eae72aa0071e0464736f6c634300081b0033",
  "linkReferences": {},
  "deployedLinkReferences": {}
}