{
  "_format": "hh-sol-artifact-1",
  "contractName": "CryptoNautsSale",
  "sourceName": "contracts/CryptoNautsSale.sol",
  "abi": [
    {
      "inputs": [
        {
          "internalType": "contract CryptoNautsCoin",
          "name": "_token",
          "type": "address"
        },
        {
          "internalType": "address",
          "name": "_priceFeed",
          "type": "address"
        }
      ],
      "stateMutability": "nonpayable",
      "type": "constructor"
    },
    {
      "inputs": [
        {
          "internalType": "uint256",
          "name": "x",
          "type": "uint256"
        },
        {
          "internalType": "uint256",
          "name": "y",
          "type": "uint256"
        },
        {
          "internalType": "uint256",
          "name": "denominator",
          "type": "uint256"
        }
      ],
      "name": "PRBMath_MulDiv_Overflow",
      "type": "error"
    },
    {
      "anonymous": false,
      "inputs": [
        {
          "indexed": false,
          "internalType": "address",
          "name": "_buyer",
          "type": "address"
        },
        {
          "indexed": false,
          "internalType": "uint256",
          "name": "_amount",
          "type": "uint256"
        }
      ],
      "name": "Sell",
      "type": "event"
    },
    {
      "stateMutability": "payable",
      "type": "fallback"
    },
    {
      "inputs": [
        {
          "internalType": "uint256",
          "name": "_amount",
          "type": "uint256"
        }
      ],
      "name": "buyToken",
      "outputs": [],
      "stateMutability": "payable",
      "type": "function"
    },
    {
      "inputs": [
        {
          "internalType": "uint256",
          "name": "_numberOfTokens",
          "type": "uint256"
        }
      ],
      "name": "calculateTokenPrice",
      "outputs": [
        {
          "internalType": "UD60x18",
          "name": "",
          "type": "uint256"
        }
      ],
      "stateMutability": "view",
      "type": "function"
    },
    {
      "inputs": [],
      "name": "endSale",
      "outputs": [],
      "stateMutability": "nonpayable",
      "type": "function"
    },
    {
      "inputs": [],
      "name": "getETHPrice",
      "outputs": [
        {
          "internalType": "int256",
          "name": "",
          "type": "int256"
        }
      ],
      "stateMutability": "view",
      "type": "function"
    },
    {
      "inputs": [],
      "name": "getTokenPrice",
      "outputs": [
        {
          "internalType": "uint256",
          "name": "",
          "type": "uint256"
        }
      ],
      "stateMutability": "view",
      "type": "function"
    },
    {
      "inputs": [],
      "name": "getTokensSold",
      "outputs": [
        {
          "internalType": "uint256",
          "name": "",
          "type": "uint256"
        }
      ],
      "stateMutability": "view",
      "type": "function"
    },
    {
      "inputs": [],
      "name": "getTransactionCount",
      "outputs": [
        {
          "internalType": "uint256",
          "name": "",
          "type": "uint256"
        }
      ],
      "stateMutability": "view",
      "type": "function"
    },
    {
      "inputs": [
        {
          "internalType": "uint256",
          "name": "",
          "type": "uint256"
        }
      ],
      "name": "transaction",
      "outputs": [
        {
          "internalType": "address",
          "name": "buyer",
          "type": "address"
        },
        {
          "internalType": "uint256",
          "name": "amount",
          "type": "uint256"
        }
      ],
      "stateMutability": "view",
      "type": "function"
    },
    {
      "inputs": [],
      "name": "withdraw",
      "outputs": [],
      "stateMutability": "nonpayable",
      "type": "function"
    },
    {
      "stateMutability": "payable",
      "type": "receive"
    }
  ],
  "bytecode": "0x60a06040523480156200001157600080fd5b50604051620016fa380380620016fa8339818101604052810190620000379190620001ac565b80600360006101000a81548173ffffffffffffffffffffffffffffffffffffffff021916908373ffffffffffffffffffffffffffffffffffffffff1602179055506101f4600281905550816000806101000a81548173ffffffffffffffffffffffffffffffffffffffff021916908373ffffffffffffffffffffffffffffffffffffffff1602179055503373ffffffffffffffffffffffffffffffffffffffff1660808173ffffffffffffffffffffffffffffffffffffffff16815250505050620001f3565b600080fd5b600073ffffffffffffffffffffffffffffffffffffffff82169050919050565b60006200012f8262000102565b9050919050565b6000620001438262000122565b9050919050565b620001558162000136565b81146200016157600080fd5b50565b60008151905062000175816200014a565b92915050565b620001868162000122565b81146200019257600080fd5b50565b600081519050620001a6816200017b565b92915050565b60008060408385031215620001c657620001c5620000fd565b5b6000620001d68582860162000164565b9250506020620001e98582860162000195565b9150509250929050565b6080516114d662000224600039600081816106ab01528181610814015281816108a2015261093001526114d66000f3fe60806040526004361061008a5760003560e01c80633ccfd60b116100595780633ccfd60b1461012e57806346bd0841146101455780634b94f50e14610183578063a607a8d9146101ae578063ee7c0db0146101d957610091565b8063072de7f3146100935780632d296bf1146100d05780632e7700f0146100ec578063380d831b1461011757610091565b3661009157005b005b34801561009f57600080fd5b506100ba60048036038101906100b59190610c64565b610204565b6040516100c79190610ccc565b60405180910390f35b6100ea60048036038101906100e59190610c64565b610330565b005b3480156100f857600080fd5b5061010161069f565b60405161010e9190610cf6565b60405180910390f35b34801561012357600080fd5b5061012c6106a9565b005b34801561013a57600080fd5b506101436108a0565b005b34801561015157600080fd5b5061016c60048036038101906101679190610c64565b610997565b60405161017a929190610d52565b60405180910390f35b34801561018f57600080fd5b506101986109db565b6040516101a59190610cf6565b60405180910390f35b3480156101ba57600080fd5b506101c36109e5565b6040516101d09190610d94565b60405180910390f35b3480156101e557600080fd5b506101ee610a94565b6040516101fb9190610cf6565b60405180910390f35b600080600360009054906101000a900473ffffffffffffffffffffffffffffffffffffffff1673ffffffffffffffffffffffffffffffffffffffff1663feaf968c6040518163ffffffff1660e01b815260040160a060405180830381865afa158015610274573d6000803e3d6000fd5b505050506040513d601f19601f820116820180604052508101906102989190610e32565b505050915050600081136102e1576040517f08c379a00000000000000000000000000000000000000000000000000000000081526004016102d890610f0a565b60405180910390fd5b60006102fa620f4240836102f59190610f88565b610a9e565b905060006103148560025461030f9190610ff2565b610a9e565b905060006103228284610aa8565b905080945050505050919050565b600061033b82610204565b9050600061034834610a9e565b90506000831161038d576040517f08c379a0000000000000000000000000000000000000000000000000000000008152600401610384906110a6565b60405180910390fd5b600034116103d0576040517f08c379a00000000000000000000000000000000000000000000000000000000081526004016103c790611112565b60405180910390fd5b6103da8183610add565b610419576040517f08c379a0000000000000000000000000000000000000000000000000000000008152600401610410906111a4565b60405180910390fd5b8260008054906101000a900473ffffffffffffffffffffffffffffffffffffffff1673ffffffffffffffffffffffffffffffffffffffff166370a08231306040518263ffffffff1660e01b815260040161047391906111c4565b602060405180830381865afa158015610490573d6000803e3d6000fd5b505050506040513d601f19601f820116820180604052508101906104b491906111df565b10156104f5576040517f08c379a00000000000000000000000000000000000000000000000000000000081526004016104ec90611258565b60405180910390fd5b60008054906101000a900473ffffffffffffffffffffffffffffffffffffffff1673ffffffffffffffffffffffffffffffffffffffff1663a9059cbb33856040518363ffffffff1660e01b8152600401610550929190610d52565b6020604051808303816000875af115801561056f573d6000803e3d6000fd5b505050506040513d601f19601f8201168201806040525081019061059391906112b0565b61059c57600080fd5b82600160008282546105ae91906112dd565b9250508190555060405180604001604052803373ffffffffffffffffffffffffffffffffffffffff1681526020018481525060056000600454815260200190815260200160002060008201518160000160006101000a81548173ffffffffffffffffffffffffffffffffffffffff021916908373ffffffffffffffffffffffffffffffffffffffff160217905550602082015181600101559050506004600081548092919061065c90611311565b91905055507f5e5e995ce3133561afceaa51a9a154d5db228cd7525d34df5185582c18d3df093384604051610692929190610d52565b60405180910390a1505050565b6000600454905090565b7f000000000000000000000000000000000000000000000000000000000000000073ffffffffffffffffffffffffffffffffffffffff163373ffffffffffffffffffffffffffffffffffffffff1614610737576040517f08c379a000000000000000000000000000000000000000000000000000000000815260040161072e906113cb565b60405180910390fd5b60008060009054906101000a900473ffffffffffffffffffffffffffffffffffffffff1673ffffffffffffffffffffffffffffffffffffffff166370a08231306040518263ffffffff1660e01b815260040161079391906111c4565b602060405180830381865afa1580156107b0573d6000803e3d6000fd5b505050506040513d601f19601f820116820180604052508101906107d491906111df565b905060008054906101000a900473ffffffffffffffffffffffffffffffffffffffff1673ffffffffffffffffffffffffffffffffffffffff1663a9059cbb7f0000000000000000000000000000000000000000000000000000000000000000836040518363ffffffff1660e01b8152600401610851929190611440565b6020604051808303816000875af1158015610870573d6000803e3d6000fd5b505050506040513d601f19601f8201168201806040525081019061089491906112b0565b61089d57600080fd5b50565b7f000000000000000000000000000000000000000000000000000000000000000073ffffffffffffffffffffffffffffffffffffffff163373ffffffffffffffffffffffffffffffffffffffff161461092e576040517f08c379a0000000000000000000000000000000000000000000000000000000008152600401610925906113cb565b60405180910390fd5b7f000000000000000000000000000000000000000000000000000000000000000073ffffffffffffffffffffffffffffffffffffffff166108fc479081150290604051600060405180830381858888f19350505050158015610994573d6000803e3d6000fd5b50565b60056020528060005260406000206000915090508060000160009054906101000a900473ffffffffffffffffffffffffffffffffffffffff16908060010154905082565b6000600254905090565b600080600360009054906101000a900473ffffffffffffffffffffffffffffffffffffffff1673ffffffffffffffffffffffffffffffffffffffff1663feaf968c6040518163ffffffff1660e01b815260040160a060405180830381865afa158015610a55573d6000803e3d6000fd5b505050506040513d601f19601f82011682018060405250810190610a799190610e32565b505050915050620f424081610a8e9190610f88565b91505090565b6000600154905090565b6000819050919050565b6000610ad5610ad0610ab985610afb565b670de0b6b3a7640000610acb86610afb565b610b05565b610c1f565b905092915050565b6000610ae882610afb565b610af184610afb565b1015905092915050565b6000819050919050565b6000806000801985870985870292508281108382030391505060008103610b4057838281610b3657610b35610f2a565b5b0492505050610c18565b838110610b88578585856040517f63a05778000000000000000000000000000000000000000000000000000000008152600401610b7f93929190611469565b60405180910390fd5b60008486880990508281118203915080830392506000600186190186169050600081870496508185049450600182836000030401905080840285179450600060028860030218905080880260020381029050808802600203810290508088026002038102905080880260020381029050808802600203810290508088026002038102905080860296505050505050505b9392505050565b6000819050919050565b600080fd5b6000819050919050565b610c4181610c2e565b8114610c4c57600080fd5b50565b600081359050610c5e81610c38565b92915050565b600060208284031215610c7a57610c79610c29565b5b6000610c8884828501610c4f565b91505092915050565b6000819050919050565b6000610cb6610cb1610cac84610c2e565b610c91565b610c2e565b9050919050565b610cc681610c9b565b82525050565b6000602082019050610ce16000830184610cbd565b92915050565b610cf081610c2e565b82525050565b6000602082019050610d0b6000830184610ce7565b92915050565b600073ffffffffffffffffffffffffffffffffffffffff82169050919050565b6000610d3c82610d11565b9050919050565b610d4c81610d31565b82525050565b6000604082019050610d676000830185610d43565b610d746020830184610ce7565b9392505050565b6000819050919050565b610d8e81610d7b565b82525050565b6000602082019050610da96000830184610d85565b92915050565b600069ffffffffffffffffffff82169050919050565b610dce81610daf565b8114610dd957600080fd5b50565b600081519050610deb81610dc5565b92915050565b610dfa81610d7b565b8114610e0557600080fd5b50565b600081519050610e1781610df1565b92915050565b600081519050610e2c81610c38565b92915050565b600080600080600060a08688031215610e4e57610e4d610c29565b5b6000610e5c88828901610ddc565b9550506020610e6d88828901610e08565b9450506040610e7e88828901610e1d565b9350506060610e8f88828901610e1d565b9250506080610ea088828901610ddc565b9150509295509295909350565b600082825260208201905092915050565b7f496e76616c696420707269636520646174610000000000000000000000000000600082015250565b6000610ef4601283610ead565b9150610eff82610ebe565b602082019050919050565b60006020820190508181036000830152610f2381610ee7565b9050919050565b7f4e487b7100000000000000000000000000000000000000000000000000000000600052601260045260246000fd5b7f4e487b7100000000000000000000000000000000000000000000000000000000600052601160045260246000fd5b6000610f9382610d7b565b9150610f9e83610d7b565b925082610fae57610fad610f2a565b5b600160000383147f800000000000000000000000000000000000000000000000000000000000000083141615610fe757610fe6610f59565b5b828205905092915050565b6000610ffd82610c2e565b915061100883610c2e565b925082820261101681610c2e565b9150828204841483151761102d5761102c610f59565b5b5092915050565b7f446f6573206e6f74206163636570742030206f7220736d616c6c6572206e756d60008201527f6265727320696e20616d6f756e74000000000000000000000000000000000000602082015250565b6000611090602e83610ead565b915061109b82611034565b604082019050919050565b600060208201905081810360008301526110bf81611083565b9050919050565b7f53656e642045544820746f2062757920736f6d6520746f6b656e730000000000600082015250565b60006110fc601b83610ead565b9150611107826110c6565b602082019050919050565b6000602082019050818103600083015261112b816110ef565b9050919050565b7f5468657265206973206e6f7420656e6f75676820657468657220746f2062757960008201527f20746f6b656e7300000000000000000000000000000000000000000000000000602082015250565b600061118e602783610ead565b915061119982611132565b604082019050919050565b600060208201905081810360008301526111bd81611181565b9050919050565b60006020820190506111d96000830184610d43565b92915050565b6000602082840312156111f5576111f4610c29565b5b600061120384828501610e1d565b91505092915050565b7f496e73756666696369656e7420746f6b656e7320696e20636f6e747261637400600082015250565b6000611242601f83610ead565b915061124d8261120c565b602082019050919050565b6000602082019050818103600083015261127181611235565b9050919050565b60008115159050919050565b61128d81611278565b811461129857600080fd5b50565b6000815190506112aa81611284565b92915050565b6000602082840312156112c6576112c5610c29565b5b60006112d48482850161129b565b91505092915050565b60006112e882610c2e565b91506112f383610c2e565b925082820190508082111561130b5761130a610f59565b5b92915050565b600061131c82610c2e565b91507fffffffffffffffffffffffffffffffffffffffffffffffffffffffffffffffff820361134e5761134d610f59565b5b600182019050919050565b7f4f6e6c7920746865206f776e6572206f662074686520636f6e7472616374206360008201527f616e20657865637574652e000000000000000000000000000000000000000000602082015250565b60006113b5602b83610ead565b91506113c082611359565b604082019050919050565b600060208201905081810360008301526113e4816113a8565b9050919050565b60006114066114016113fc84610d11565b610c91565b610d11565b9050919050565b6000611418826113eb565b9050919050565b600061142a8261140d565b9050919050565b61143a8161141f565b82525050565b60006040820190506114556000830185611431565b6114626020830184610ce7565b9392505050565b600060608201905061147e6000830186610ce7565b61148b6020830185610ce7565b6114986040830184610ce7565b94935050505056fea2646970667358221220087f02ddc0333f48448af3776d35ee6b212c3f593f7203c517ac6547fa97513164736f6c63430008130033",
  "linkReferences": {},
  "deployedLinkReferences": {}
}