{
  "_format": "hh-sol-artifact-1",
  "contractName": "CryptoNautsSale",
  "sourceName": "contracts/CryptoNautsSale.sol",
  "abi": [
    {
      "inputs": [
        {
          "internalType": "contract CryptoNautsCoin",
          "name": "_token",
          "type": "address"
        },
        {
          "internalType": "address",
          "name": "_priceFeed",
          "type": "address"
        }
      ],
      "stateMutability": "nonpayable",
      "type": "constructor"
    },
    {
      "inputs": [
        {
          "internalType": "uint256",
          "name": "x",
          "type": "uint256"
        },
        {
          "internalType": "uint256",
          "name": "y",
          "type": "uint256"
        },
        {
          "internalType": "uint256",
          "name": "denominator",
          "type": "uint256"
        }
      ],
      "name": "PRBMath_MulDiv_Overflow",
      "type": "error"
    },
    {
      "anonymous": false,
      "inputs": [
        {
          "indexed": false,
          "internalType": "address",
          "name": "_buyer",
          "type": "address"
        },
        {
          "indexed": false,
          "internalType": "uint256",
          "name": "_amount",
          "type": "uint256"
        }
      ],
      "name": "Sell",
      "type": "event"
    },
    {
      "stateMutability": "payable",
      "type": "fallback"
    },
    {
      "inputs": [
        {
          "internalType": "uint256",
          "name": "_amount",
          "type": "uint256"
        }
      ],
      "name": "buyToken",
      "outputs": [],
      "stateMutability": "payable",
      "type": "function"
    },
    {
      "inputs": [
        {
          "internalType": "uint256",
          "name": "_numberOfTokens",
          "type": "uint256"
        }
      ],
      "name": "calculateTokenPrice",
      "outputs": [
        {
          "internalType": "UD60x18",
          "name": "",
          "type": "uint256"
        }
      ],
      "stateMutability": "view",
      "type": "function"
    },
    {
      "inputs": [],
      "name": "endSale",
      "outputs": [],
      "stateMutability": "nonpayable",
      "type": "function"
    },
    {
      "inputs": [],
      "name": "getETHPrice",
      "outputs": [
        {
          "internalType": "int256",
          "name": "",
          "type": "int256"
        }
      ],
      "stateMutability": "view",
      "type": "function"
    },
    {
      "inputs": [],
      "name": "getTokenPrice",
      "outputs": [
        {
          "internalType": "uint256",
          "name": "",
          "type": "uint256"
        }
      ],
      "stateMutability": "view",
      "type": "function"
    },
    {
      "inputs": [],
      "name": "getTokensSold",
      "outputs": [
        {
          "internalType": "uint256",
          "name": "",
          "type": "uint256"
        }
      ],
      "stateMutability": "view",
      "type": "function"
    },
    {
      "inputs": [],
      "name": "getTransactionCount",
      "outputs": [
        {
          "internalType": "uint256",
          "name": "",
          "type": "uint256"
        }
      ],
      "stateMutability": "view",
      "type": "function"
    },
    {
      "inputs": [
        {
          "internalType": "uint256",
          "name": "",
          "type": "uint256"
        }
      ],
      "name": "transaction",
      "outputs": [
        {
          "internalType": "address",
          "name": "buyer",
          "type": "address"
        },
        {
          "internalType": "uint256",
          "name": "amount",
          "type": "uint256"
        }
      ],
      "stateMutability": "view",
      "type": "function"
    },
    {
      "inputs": [],
      "name": "withdraw",
      "outputs": [],
      "stateMutability": "nonpayable",
      "type": "function"
    },
    {
      "stateMutability": "payable",
      "type": "receive"
    }
  ],
  "bytecode": "0x60a060405234801561001057600080fd5b506040516116d83803806116d883398181016040528101906100329190610198565b80600360006101000a81548173ffffffffffffffffffffffffffffffffffffffff021916908373ffffffffffffffffffffffffffffffffffffffff1602179055506101f4600281905550816000806101000a81548173ffffffffffffffffffffffffffffffffffffffff021916908373ffffffffffffffffffffffffffffffffffffffff1602179055503373ffffffffffffffffffffffffffffffffffffffff1660808173ffffffffffffffffffffffffffffffffffffffff168152505050506101d8565b600080fd5b600073ffffffffffffffffffffffffffffffffffffffff82169050919050565b6000610127826100fc565b9050919050565b60006101398261011c565b9050919050565b6101498161012e565b811461015457600080fd5b50565b60008151905061016681610140565b92915050565b6101758161011c565b811461018057600080fd5b50565b6000815190506101928161016c565b92915050565b600080604083850312156101af576101ae6100f7565b5b60006101bd85828601610157565b92505060206101ce85828601610183565b9150509250929050565b6080516114d0610208600039600081816106a50152818161080e0152818161089c015261092a01526114d06000f3fe60806040526004361061008a5760003560e01c80633ccfd60b116100595780633ccfd60b1461012857806346bd08411461013f5780634b94f50e1461017d578063a607a8d9146101a8578063ee7c0db0146101d35761008b565b8063072de7f31461008d5780632d296bf1146100ca5780632e7700f0146100e6578063380d831b146101115761008b565b5b005b34801561009957600080fd5b506100b460048036038101906100af9190610c5e565b6101fe565b6040516100c19190610cc6565b60405180910390f35b6100e460048036038101906100df9190610c5e565b61032a565b005b3480156100f257600080fd5b506100fb610699565b6040516101089190610cf0565b60405180910390f35b34801561011d57600080fd5b506101266106a3565b005b34801561013457600080fd5b5061013d61089a565b005b34801561014b57600080fd5b5061016660048036038101906101619190610c5e565b610991565b604051610174929190610d4c565b60405180910390f35b34801561018957600080fd5b506101926109d5565b60405161019f9190610cf0565b60405180910390f35b3480156101b457600080fd5b506101bd6109df565b6040516101ca9190610d8e565b60405180910390f35b3480156101df57600080fd5b506101e8610a8e565b6040516101f59190610cf0565b60405180910390f35b600080600360009054906101000a900473ffffffffffffffffffffffffffffffffffffffff1673ffffffffffffffffffffffffffffffffffffffff1663feaf968c6040518163ffffffff1660e01b815260040160a060405180830381865afa15801561026e573d6000803e3d6000fd5b505050506040513d601f19601f820116820180604052508101906102929190610e2c565b505050915050600081136102db576040517f08c379a00000000000000000000000000000000000000000000000000000000081526004016102d290610f04565b60405180910390fd5b60006102f4620f4240836102ef9190610f82565b610a98565b9050600061030e856002546103099190610fec565b610a98565b9050600061031c8284610aa2565b905080945050505050919050565b6000610335826101fe565b9050600061034234610a98565b905060008311610387576040517f08c379a000000000000000000000000000000000000000000000000000000000815260040161037e906110a0565b60405180910390fd5b600034116103ca576040517f08c379a00000000000000000000000000000000000000000000000000000000081526004016103c19061110c565b60405180910390fd5b6103d48183610ad7565b610413576040517f08c379a000000000000000000000000000000000000000000000000000000000815260040161040a9061119e565b60405180910390fd5b8260008054906101000a900473ffffffffffffffffffffffffffffffffffffffff1673ffffffffffffffffffffffffffffffffffffffff166370a08231306040518263ffffffff1660e01b815260040161046d91906111be565b602060405180830381865afa15801561048a573d6000803e3d6000fd5b505050506040513d601f19601f820116820180604052508101906104ae91906111d9565b10156104ef576040517f08c379a00000000000000000000000000000000000000000000000000000000081526004016104e690611252565b60405180910390fd5b60008054906101000a900473ffffffffffffffffffffffffffffffffffffffff1673ffffffffffffffffffffffffffffffffffffffff1663a9059cbb33856040518363ffffffff1660e01b815260040161054a929190610d4c565b6020604051808303816000875af1158015610569573d6000803e3d6000fd5b505050506040513d601f19601f8201168201806040525081019061058d91906112aa565b61059657600080fd5b82600160008282546105a891906112d7565b9250508190555060405180604001604052803373ffffffffffffffffffffffffffffffffffffffff1681526020018481525060056000600454815260200190815260200160002060008201518160000160006101000a81548173ffffffffffffffffffffffffffffffffffffffff021916908373ffffffffffffffffffffffffffffffffffffffff16021790555060208201518160010155905050600460008154809291906106569061130b565b91905055507f5e5e995ce3133561afceaa51a9a154d5db228cd7525d34df5185582c18d3df09338460405161068c929190610d4c565b60405180910390a1505050565b6000600454905090565b7f000000000000000000000000000000000000000000000000000000000000000073ffffffffffffffffffffffffffffffffffffffff163373ffffffffffffffffffffffffffffffffffffffff1614610731576040517f08c379a0000000000000000000000000000000000000000000000000000000008152600401610728906113c5565b60405180910390fd5b60008060009054906101000a900473ffffffffffffffffffffffffffffffffffffffff1673ffffffffffffffffffffffffffffffffffffffff166370a08231306040518263ffffffff1660e01b815260040161078d91906111be565b602060405180830381865afa1580156107aa573d6000803e3d6000fd5b505050506040513d601f19601f820116820180604052508101906107ce91906111d9565b905060008054906101000a900473ffffffffffffffffffffffffffffffffffffffff1673ffffffffffffffffffffffffffffffffffffffff1663a9059cbb7f0000000000000000000000000000000000000000000000000000000000000000836040518363ffffffff1660e01b815260040161084b92919061143a565b6020604051808303816000875af115801561086a573d6000803e3d6000fd5b505050506040513d601f19601f8201168201806040525081019061088e91906112aa565b61089757600080fd5b50565b7f000000000000000000000000000000000000000000000000000000000000000073ffffffffffffffffffffffffffffffffffffffff163373ffffffffffffffffffffffffffffffffffffffff1614610928576040517f08c379a000000000000000000000000000000000000000000000000000000000815260040161091f906113c5565b60405180910390fd5b7f000000000000000000000000000000000000000000000000000000000000000073ffffffffffffffffffffffffffffffffffffffff166108fc479081150290604051600060405180830381858888f1935050505015801561098e573d6000803e3d6000fd5b50565b60056020528060005260406000206000915090508060000160009054906101000a900473ffffffffffffffffffffffffffffffffffffffff16908060010154905082565b6000600254905090565b600080600360009054906101000a900473ffffffffffffffffffffffffffffffffffffffff1673ffffffffffffffffffffffffffffffffffffffff1663feaf968c6040518163ffffffff1660e01b815260040160a060405180830381865afa158015610a4f573d6000803e3d6000fd5b505050506040513d601f19601f82011682018060405250810190610a739190610e2c565b505050915050620f424081610a889190610f82565b91505090565b6000600154905090565b6000819050919050565b6000610acf610aca610ab385610af5565b670de0b6b3a7640000610ac586610af5565b610aff565b610c19565b905092915050565b6000610ae282610af5565b610aeb84610af5565b1015905092915050565b6000819050919050565b6000806000801985870985870292508281108382030391505060008103610b3a57838281610b3057610b2f610f24565b5b0492505050610c12565b838110610b82578585856040517f63a05778000000000000000000000000000000000000000000000000000000008152600401610b7993929190611463565b60405180910390fd5b60008486880990508281118203915080830392506000600186190186169050600081870496508185049450600182836000030401905080840285179450600060028860030218905080880260020381029050808802600203810290508088026002038102905080880260020381029050808802600203810290508088026002038102905080860296505050505050505b9392505050565b6000819050919050565b600080fd5b6000819050919050565b610c3b81610c28565b8114610c4657600080fd5b50565b600081359050610c5881610c32565b92915050565b600060208284031215610c7457610c73610c23565b5b6000610c8284828501610c49565b91505092915050565b6000819050919050565b6000610cb0610cab610ca684610c28565b610c8b565b610c28565b9050919050565b610cc081610c95565b82525050565b6000602082019050610cdb6000830184610cb7565b92915050565b610cea81610c28565b82525050565b6000602082019050610d056000830184610ce1565b92915050565b600073ffffffffffffffffffffffffffffffffffffffff82169050919050565b6000610d3682610d0b565b9050919050565b610d4681610d2b565b82525050565b6000604082019050610d616000830185610d3d565b610d6e6020830184610ce1565b9392505050565b6000819050919050565b610d8881610d75565b82525050565b6000602082019050610da36000830184610d7f565b92915050565b600069ffffffffffffffffffff82169050919050565b610dc881610da9565b8114610dd357600080fd5b50565b600081519050610de581610dbf565b92915050565b610df481610d75565b8114610dff57600080fd5b50565b600081519050610e1181610deb565b92915050565b600081519050610e2681610c32565b92915050565b600080600080600060a08688031215610e4857610e47610c23565b5b6000610e5688828901610dd6565b9550506020610e6788828901610e02565b9450506040610e7888828901610e17565b9350506060610e8988828901610e17565b9250506080610e9a88828901610dd6565b9150509295509295909350565b600082825260208201905092915050565b7f496e76616c696420707269636520646174610000000000000000000000000000600082015250565b6000610eee601283610ea7565b9150610ef982610eb8565b602082019050919050565b60006020820190508181036000830152610f1d81610ee1565b9050919050565b7f4e487b7100000000000000000000000000000000000000000000000000000000600052601260045260246000fd5b7f4e487b7100000000000000000000000000000000000000000000000000000000600052601160045260246000fd5b6000610f8d82610d75565b9150610f9883610d75565b925082610fa857610fa7610f24565b5b600160000383147f800000000000000000000000000000000000000000000000000000000000000083141615610fe157610fe0610f53565b5b828205905092915050565b6000610ff782610c28565b915061100283610c28565b925082820261101081610c28565b9150828204841483151761102757611026610f53565b5b5092915050565b7f446f6573206e6f74206163636570742030206f7220736d616c6c6572206e756d60008201527f6265727320696e20616d6f756e74000000000000000000000000000000000000602082015250565b600061108a602e83610ea7565b91506110958261102e565b604082019050919050565b600060208201905081810360008301526110b98161107d565b9050919050565b7f53656e642045544820746f2062757920736f6d6520746f6b656e730000000000600082015250565b60006110f6601b83610ea7565b9150611101826110c0565b602082019050919050565b60006020820190508181036000830152611125816110e9565b9050919050565b7f5468657265206973206e6f7420656e6f75676820657468657220746f2062757960008201527f20746f6b656e7300000000000000000000000000000000000000000000000000602082015250565b6000611188602783610ea7565b91506111938261112c565b604082019050919050565b600060208201905081810360008301526111b78161117b565b9050919050565b60006020820190506111d36000830184610d3d565b92915050565b6000602082840312156111ef576111ee610c23565b5b60006111fd84828501610e17565b91505092915050565b7f496e73756666696369656e7420746f6b656e7320696e20636f6e747261637400600082015250565b600061123c601f83610ea7565b915061124782611206565b602082019050919050565b6000602082019050818103600083015261126b8161122f565b9050919050565b60008115159050919050565b61128781611272565b811461129257600080fd5b50565b6000815190506112a48161127e565b92915050565b6000602082840312156112c0576112bf610c23565b5b60006112ce84828501611295565b91505092915050565b60006112e282610c28565b91506112ed83610c28565b925082820190508082111561130557611304610f53565b5b92915050565b600061131682610c28565b91507fffffffffffffffffffffffffffffffffffffffffffffffffffffffffffffffff820361134857611347610f53565b5b600182019050919050565b7f4f6e6c7920746865206f776e6572206f662074686520636f6e7472616374206360008201527f616e20657865637574652e000000000000000000000000000000000000000000602082015250565b60006113af602b83610ea7565b91506113ba82611353565b604082019050919050565b600060208201905081810360008301526113de816113a2565b9050919050565b60006114006113fb6113f684610d0b565b610c8b565b610d0b565b9050919050565b6000611412826113e5565b9050919050565b600061142482611407565b9050919050565b61143481611419565b82525050565b600060408201905061144f600083018561142b565b61145c6020830184610ce1565b9392505050565b60006060820190506114786000830186610ce1565b6114856020830185610ce1565b6114926040830184610ce1565b94935050505056fea2646970667358221220f0f474387b4df71bb5c333861b5b5a09311b7925df8f36dcee592c76cf85e57364736f6c634300081b0033",
  "linkReferences": {},
  "deployedLinkReferences": {}
}