{
  "_format": "hh-sol-artifact-1",
  "contractName": "CryptoNauts",
  "sourceName": "contracts/CryptoNauts.sol",
  "abi": [
    {
      "inputs": [
        {
          "internalType": "contract CryptoNautsCoin",
          "name": "_token",
          "type": "address"
        }
      ],
      "stateMutability": "nonpayable",
      "type": "constructor"
    },
    {
      "anonymous": false,
      "inputs": [
        {
          "indexed": false,
          "internalType": "uint256",
          "name": "id",
          "type": "uint256"
        }
      ],
      "name": "NautsDeleted",
      "type": "event"
    },
    {
      "anonymous": false,
      "inputs": [
        {
          "indexed": false,
          "internalType": "uint256",
          "name": "id",
          "type": "uint256"
        },
        {
          "indexed": false,
          "internalType": "string",
          "name": "name",
          "type": "string"
        },
        {
          "indexed": false,
          "internalType": "string",
          "name": "role",
          "type": "string"
        }
      ],
      "name": "NautsInfo",
      "type": "event"
    },
    {
      "inputs": [
        {
          "internalType": "string",
          "name": "_email",
          "type": "string"
        },
        {
          "internalType": "string",
          "name": "_name",
          "type": "string"
        },
        {
          "internalType": "string",
          "name": "_role",
          "type": "string"
        }
      ],
      "name": "createNauts",
      "outputs": [],
      "stateMutability": "nonpayable",
      "type": "function"
    },
    {
      "inputs": [
        {
          "internalType": "uint256",
          "name": "id",
          "type": "uint256"
        }
      ],
      "name": "deleteNauts",
      "outputs": [],
      "stateMutability": "nonpayable",
      "type": "function"
    },
    {
      "inputs": [],
      "name": "getAllNauts",
      "outputs": [
        {
          "components": [
            {
              "internalType": "uint256",
              "name": "id",
              "type": "uint256"
            },
            {
              "internalType": "string",
              "name": "email",
              "type": "string"
            },
            {
              "internalType": "string",
              "name": "name",
              "type": "string"
            },
            {
              "internalType": "string",
              "name": "role",
              "type": "string"
            }
          ],
          "internalType": "struct CryptoNauts.Nauts[]",
          "name": "",
          "type": "tuple[]"
        }
      ],
      "stateMutability": "view",
      "type": "function"
    },
    {
      "inputs": [
        {
          "internalType": "uint256",
          "name": "id",
          "type": "uint256"
        }
      ],
      "name": "getNauts",
      "outputs": [
        {
          "internalType": "uint256",
          "name": "",
          "type": "uint256"
        },
        {
          "internalType": "string",
          "name": "",
          "type": "string"
        },
        {
          "internalType": "string",
          "name": "",
          "type": "string"
        },
        {
          "internalType": "string",
          "name": "",
          "type": "string"
        }
      ],
      "stateMutability": "view",
      "type": "function"
    },
    {
      "inputs": [],
      "name": "getNautsCount",
      "outputs": [
        {
          "internalType": "uint256",
          "name": "",
          "type": "uint256"
        }
      ],
      "stateMutability": "view",
      "type": "function"
    },
    {
      "inputs": [],
      "name": "getPriceRegister",
      "outputs": [
        {
          "internalType": "uint256",
          "name": "",
          "type": "uint256"
        }
      ],
      "stateMutability": "view",
      "type": "function"
    },
    {
      "inputs": [
        {
          "internalType": "string",
          "name": "_email",
          "type": "string"
        }
      ],
      "name": "nautsExistsByEmail",
      "outputs": [
        {
          "internalType": "bool",
          "name": "",
          "type": "bool"
        }
      ],
      "stateMutability": "view",
      "type": "function"
    },
    {
      "inputs": [
        {
          "internalType": "uint256",
          "name": "_id",
          "type": "uint256"
        },
        {
          "internalType": "string",
          "name": "_newEmail",
          "type": "string"
        },
        {
          "internalType": "string",
          "name": "_newName",
          "type": "string"
        },
        {
          "internalType": "string",
          "name": "_newRole",
          "type": "string"
        }
      ],
      "name": "updateNauts",
      "outputs": [],
      "stateMutability": "nonpayable",
      "type": "function"
    }
  ],
  "bytecode": "0x60a06040523480156200001157600080fd5b506040516200278938038062002789833981810160405281019062000037919062000274565b3373ffffffffffffffffffffffffffffffffffffffff1660808173ffffffffffffffffffffffffffffffffffffffff1681525050806000806101000a81548173ffffffffffffffffffffffffffffffffffffffff021916908373ffffffffffffffffffffffffffffffffffffffff1602179055506113886001819055506040518060400160405280601e81526020017f66656c697065636f727265696173696c7661406f75746c6f6f6b2e636f6d00008152506003600080815260200190815260200160002060010190816200010e919062000520565b506040518060400160405280601481526020017f46656c69706520436f72726569612053696c766100000000000000000000000081525060036000808152602001908152602001600020600201908162000169919062000520565b506040518060400160405280600881526020017f456e67696e656572000000000000000000000000000000000000000000000000815250600360008081526020019081526020016000206003019081620001c4919062000520565b506002600090806001815401808255809150506001900390600052602060002001600090919091909150555062000607565b600080fd5b600073ffffffffffffffffffffffffffffffffffffffff82169050919050565b60006200022882620001fb565b9050919050565b60006200023c826200021b565b9050919050565b6200024e816200022f565b81146200025a57600080fd5b50565b6000815190506200026e8162000243565b92915050565b6000602082840312156200028d576200028c620001f6565b5b60006200029d848285016200025d565b91505092915050565b600081519050919050565b7f4e487b7100000000000000000000000000000000000000000000000000000000600052604160045260246000fd5b7f4e487b7100000000000000000000000000000000000000000000000000000000600052602260045260246000fd5b600060028204905060018216806200032857607f821691505b6020821081036200033e576200033d620002e0565b5b50919050565b60008190508160005260206000209050919050565b60006020601f8301049050919050565b600082821b905092915050565b600060088302620003a87fffffffffffffffffffffffffffffffffffffffffffffffffffffffffffffffff8262000369565b620003b4868362000369565b95508019841693508086168417925050509392505050565b6000819050919050565b6000819050919050565b600062000401620003fb620003f584620003cc565b620003d6565b620003cc565b9050919050565b6000819050919050565b6200041d83620003e0565b620004356200042c8262000408565b84845462000376565b825550505050565b600090565b6200044c6200043d565b6200045981848462000412565b505050565b5b8181101562000481576200047560008262000442565b6001810190506200045f565b5050565b601f821115620004d0576200049a8162000344565b620004a58462000359565b81016020851015620004b5578190505b620004cd620004c48562000359565b8301826200045e565b50505b505050565b600082821c905092915050565b6000620004f560001984600802620004d5565b1980831691505092915050565b6000620005108383620004e2565b9150826002028217905092915050565b6200052b82620002a6565b67ffffffffffffffff811115620005475762000546620002b1565b5b6200055382546200030f565b6200056082828562000485565b600060209050601f83116001811462000598576000841562000583578287015190505b6200058f858262000502565b865550620005ff565b601f198416620005a88662000344565b60005b82811015620005d257848901518255600182019150602085019450602081019050620005ab565b86831015620005f25784890151620005ee601f891682620004e2565b8355505b6001600288020188555050505b505050505050565b60805161215f6200062a600039600081816103e80152610d90015261215f6000f3fe608060405234801561001057600080fd5b50600436106100885760003560e01c806387d20eec1161005b57806387d20eec1461011857806390952fdf14610148578063969d7c0314610164578063ac1b49481461018257610088565b806337747c0f1461008d578063413d2f2a146100c057806356a945c7146100dc5780637ba92252146100fa575b600080fd5b6100a760048036038101906100a291906111c1565b61019e565b6040516100b7949392919061128d565b60405180910390f35b6100da60048036038101906100d591906111c1565b6103e6565b005b6100e4610629565b6040516100f191906112e7565b60405180910390f35b610102610636565b60405161010f919061148e565b60405180910390f35b610132600480360381019061012d9190611515565b6108da565b60405161013f919061157d565b60405180910390f35b610162600480360381019061015d9190611598565b6109cc565b005b61016c610d84565b60405161017991906112e7565b60405180910390f35b61019c6004803603810190610197919061164c565b610d8e565b005b6000606080606060006003600087815260200190815260200160002060020180546101c890611744565b90501161020a576040517f08c379a0000000000000000000000000000000000000000000000000000000008152600401610201906117c1565b60405180910390fd5b6000600360008781526020019081526020016000209050806000015481600201826001018360030182805461023e90611744565b80601f016020809104026020016040519081016040528092919081815260200182805461026a90611744565b80156102b75780601f1061028c576101008083540402835291602001916102b7565b820191906000526020600020905b81548152906001019060200180831161029a57829003601f168201915b505050505092508180546102ca90611744565b80601f01602080910402602001604051908101604052809291908181526020018280546102f690611744565b80156103435780601f1061031857610100808354040283529160200191610343565b820191906000526020600020905b81548152906001019060200180831161032657829003601f168201915b5050505050915080805461035690611744565b80601f016020809104026020016040519081016040528092919081815260200182805461038290611744565b80156103cf5780601f106103a4576101008083540402835291602001916103cf565b820191906000526020600020905b8154815290600101906020018083116103b257829003601f168201915b505050505090509450945094509450509193509193565b7f000000000000000000000000000000000000000000000000000000000000000073ffffffffffffffffffffffffffffffffffffffff163373ffffffffffffffffffffffffffffffffffffffff1614610474576040517f08c379a000000000000000000000000000000000000000000000000000000000815260040161046b90611853565b60405180910390fd5b600060036000838152602001908152602001600020600201805461049790611744565b9050116104d9576040517f08c379a00000000000000000000000000000000000000000000000000000000081526004016104d0906117c1565b60405180910390fd5b6003600082815260200190815260200160002060008082016000905560018201600061050591906110fc565b60028201600061051591906110fc565b60038201600061052591906110fc565b505060005b6002805490508110156105ee57816002828154811061054c5761054b611873565b5b9060005260206000200154036105db576002600160028054905061057091906118d1565b8154811061058157610580611873565b5b9060005260206000200154600282815481106105a05761059f611873565b5b906000526020600020018190555060028054806105c0576105bf611905565b5b600190038181906000526020600020016000905590556105ee565b80806105e690611934565b91505061052a565b507fde549ccf51cdd42293a2fdbbf166f6d417621cde2d99ed9c20b085c24f0577c88160405161061e91906112e7565b60405180910390a150565b6000600280549050905090565b6060600060028054905067ffffffffffffffff8111156106595761065861197c565b5b60405190808252806020026020018201604052801561069257816020015b61067f61113c565b8152602001906001900390816106775790505b50905060005b6002805490508110156108d25760036000600283815481106106bd576106bc611873565b5b90600052602060002001548152602001908152602001600020604051806080016040529081600082015481526020016001820180546106fb90611744565b80601f016020809104026020016040519081016040528092919081815260200182805461072790611744565b80156107745780601f1061074957610100808354040283529160200191610774565b820191906000526020600020905b81548152906001019060200180831161075757829003601f168201915b5050505050815260200160028201805461078d90611744565b80601f01602080910402602001604051908101604052809291908181526020018280546107b990611744565b80156108065780601f106107db57610100808354040283529160200191610806565b820191906000526020600020905b8154815290600101906020018083116107e957829003601f168201915b5050505050815260200160038201805461081f90611744565b80601f016020809104026020016040519081016040528092919081815260200182805461084b90611744565b80156108985780601f1061086d57610100808354040283529160200191610898565b820191906000526020600020905b81548152906001019060200180831161087b57829003601f168201915b5050505050815250508282815181106108b4576108b3611873565b5b602002602001018190525080806108ca90611934565b915050610698565b508091505090565b600080600090506003848490501015610928576040517f08c379a000000000000000000000000000000000000000000000000000000000815260040161091f90611a1d565b60405180910390fd5b60005b6002805490508110156109c1576000600360008381526020019081526020016000206001016040516020016109609190611ae0565b604051602081830303815290604052805190602001208686604051602001610989929190611b2b565b6040516020818303038152906040528051906020012014905080156109ad57600192505b5080806109b990611934565b91505061092b565b508091505092915050565b60006109d887876108da565b90506003858590501015610a21576040517f08c379a0000000000000000000000000000000000000000000000000000000008152600401610a1890611bb6565b60405180910390fd5b6000151581151514610a68576040517f08c379a0000000000000000000000000000000000000000000000000000000008152600401610a5f90611c22565b60405180910390fd5b6003838390501015610aaf576040517f08c379a0000000000000000000000000000000000000000000000000000000008152600401610aa690611cb4565b60405180910390fd5b60015460008054906101000a900473ffffffffffffffffffffffffffffffffffffffff1673ffffffffffffffffffffffffffffffffffffffff166370a08231336040518263ffffffff1660e01b8152600401610b0b9190611d15565b602060405180830381865afa158015610b28573d6000803e3d6000fd5b505050506040513d601f19601f82011682018060405250810190610b4c9190611d45565b1015610b8d576040517f08c379a0000000000000000000000000000000000000000000000000000000008152600401610b8490611dbe565b60405180910390fd5b60028080549050908060018154018082558091505060019003906000526020600020016000909190919091505560405180608001604052806001600280549050610bd791906118d1565b815260200188888080601f016020809104026020016040519081016040528093929190818152602001838380828437600081840152601f19601f82011690508083019250505050505050815260200186868080601f016020809104026020016040519081016040528093929190818152602001838380828437600081840152601f19601f82011690508083019250505050505050815260200184848080601f016020809104026020016040519081016040528093929190818152602001838380828437600081840152601f19601f82011690508083019250505050505050815250600360006001600280549050610cce91906118d1565b8152602001908152602001600020600082015181600001556020820151816001019081610cfb9190611f75565b506040820151816002019081610d119190611f75565b506060820151816003019081610d279190611f75565b509050507f92adf62538129b7ada01d117dfcf29b6d16fea03d827fcb9b90e6ac5da2145df6001600280549050610d5e91906118d1565b86868686604051610d73959493929190612074565b60405180910390a150505050505050565b6000600154905090565b7f000000000000000000000000000000000000000000000000000000000000000073ffffffffffffffffffffffffffffffffffffffff163373ffffffffffffffffffffffffffffffffffffffff1614610e1c576040517f08c379a0000000000000000000000000000000000000000000000000000000008152600401610e1390611853565b60405180910390fd5b6000610e2887876108da565b90506000600360008a81526020019081526020016000206002018054610e4d90611744565b905011610e8f576040517f08c379a0000000000000000000000000000000000000000000000000000000008152600401610e8690612109565b60405180910390fd5b6003858590501015610ed6576040517f08c379a0000000000000000000000000000000000000000000000000000000008152600401610ecd90611bb6565b60405180910390fd5b6000151581151514610f1d576040517f08c379a0000000000000000000000000000000000000000000000000000000008152600401610f1490611c22565b60405180910390fd5b6003838390501015610f64576040517f08c379a0000000000000000000000000000000000000000000000000000000008152600401610f5b90611cb4565b60405180910390fd5b604051806080016040528089815260200188888080601f016020809104026020016040519081016040528093929190818152602001838380828437600081840152601f19601f82011690508083019250505050505050815260200186868080601f016020809104026020016040519081016040528093929190818152602001838380828437600081840152601f19601f82011690508083019250505050505050815260200184848080601f016020809104026020016040519081016040528093929190818152602001838380828437600081840152601f19601f82011690508083019250505050505050815250600360008a81526020019081526020016000206000820151816000015560208201518160010190816110839190611f75565b5060408201518160020190816110999190611f75565b5060608201518160030190816110af9190611f75565b509050507f92adf62538129b7ada01d117dfcf29b6d16fea03d827fcb9b90e6ac5da2145df88868686866040516110ea959493929190612074565b60405180910390a15050505050505050565b50805461110890611744565b6000825580601f1061111a5750611139565b601f0160209004906000526020600020908101906111389190611164565b5b50565b6040518060800160405280600081526020016060815260200160608152602001606081525090565b5b8082111561117d576000816000905550600101611165565b5090565b600080fd5b600080fd5b6000819050919050565b61119e8161118b565b81146111a957600080fd5b50565b6000813590506111bb81611195565b92915050565b6000602082840312156111d7576111d6611181565b5b60006111e5848285016111ac565b91505092915050565b6111f78161118b565b82525050565b600081519050919050565b600082825260208201905092915050565b60005b8381101561123757808201518184015260208101905061121c565b60008484015250505050565b6000601f19601f8301169050919050565b600061125f826111fd565b6112698185611208565b9350611279818560208601611219565b61128281611243565b840191505092915050565b60006080820190506112a260008301876111ee565b81810360208301526112b48186611254565b905081810360408301526112c88185611254565b905081810360608301526112dc8184611254565b905095945050505050565b60006020820190506112fc60008301846111ee565b92915050565b600081519050919050565b600082825260208201905092915050565b6000819050602082019050919050565b6113378161118b565b82525050565b600082825260208201905092915050565b6000611359826111fd565b611363818561133d565b9350611373818560208601611219565b61137c81611243565b840191505092915050565b600060808301600083015161139f600086018261132e565b50602083015184820360208601526113b7828261134e565b915050604083015184820360408601526113d1828261134e565b915050606083015184820360608601526113eb828261134e565b9150508091505092915050565b60006114048383611387565b905092915050565b6000602082019050919050565b600061142482611302565b61142e818561130d565b9350836020820285016114408561131e565b8060005b8581101561147c578484038952815161145d85826113f8565b94506114688361140c565b925060208a01995050600181019050611444565b50829750879550505050505092915050565b600060208201905081810360008301526114a88184611419565b905092915050565b600080fd5b600080fd5b600080fd5b60008083601f8401126114d5576114d46114b0565b5b8235905067ffffffffffffffff8111156114f2576114f16114b5565b5b60208301915083600182028301111561150e5761150d6114ba565b5b9250929050565b6000806020838503121561152c5761152b611181565b5b600083013567ffffffffffffffff81111561154a57611549611186565b5b611556858286016114bf565b92509250509250929050565b60008115159050919050565b61157781611562565b82525050565b6000602082019050611592600083018461156e565b92915050565b600080600080600080606087890312156115b5576115b4611181565b5b600087013567ffffffffffffffff8111156115d3576115d2611186565b5b6115df89828a016114bf565b9650965050602087013567ffffffffffffffff81111561160257611601611186565b5b61160e89828a016114bf565b9450945050604087013567ffffffffffffffff81111561163157611630611186565b5b61163d89828a016114bf565b92509250509295509295509295565b60008060008060008060006080888a03121561166b5761166a611181565b5b60006116798a828b016111ac565b975050602088013567ffffffffffffffff81111561169a57611699611186565b5b6116a68a828b016114bf565b9650965050604088013567ffffffffffffffff8111156116c9576116c8611186565b5b6116d58a828b016114bf565b9450945050606088013567ffffffffffffffff8111156116f8576116f7611186565b5b6117048a828b016114bf565b925092505092959891949750929550565b7f4e487b7100000000000000000000000000000000000000000000000000000000600052602260045260246000fd5b6000600282049050600182168061175c57607f821691505b60208210810361176f5761176e611715565b5b50919050565b7f4e6f6e2d6578697374656e742062726f777365722e0000000000000000000000600082015250565b60006117ab601583611208565b91506117b682611775565b602082019050919050565b600060208201905081810360008301526117da8161179e565b9050919050565b7f4f6e6c7920746865206f776e6572206f662074686520636f6e7472616374206360008201527f616e20657865637574652e000000000000000000000000000000000000000000602082015250565b600061183d602b83611208565b9150611848826117e1565b604082019050919050565b6000602082019050818103600083015261186c81611830565b9050919050565b7f4e487b7100000000000000000000000000000000000000000000000000000000600052603260045260246000fd5b7f4e487b7100000000000000000000000000000000000000000000000000000000600052601160045260246000fd5b60006118dc8261118b565b91506118e78361118b565b92508282039050818111156118ff576118fe6118a2565b5b92915050565b7f4e487b7100000000000000000000000000000000000000000000000000000000600052603160045260246000fd5b600061193f8261118b565b91507fffffffffffffffffffffffffffffffffffffffffffffffffffffffffffffffff8203611971576119706118a2565b5b600182019050919050565b7f4e487b7100000000000000000000000000000000000000000000000000000000600052604160045260246000fd5b7f456d61696c206d75737420636f6e7461696e206174206c65617374203320646960008201527f676974732e000000000000000000000000000000000000000000000000000000602082015250565b6000611a07602583611208565b9150611a12826119ab565b604082019050919050565b60006020820190508181036000830152611a36816119fa565b9050919050565b600081905092915050565b60008190508160005260206000209050919050565b60008154611a6a81611744565b611a748186611a3d565b94506001821660008114611a8f5760018114611aa457611ad7565b60ff1983168652811515820286019350611ad7565b611aad85611a48565b60005b83811015611acf57815481890152600182019150602081019050611ab0565b838801955050505b50505092915050565b6000611aec8284611a5d565b915081905092915050565b82818337600083830152505050565b6000611b128385611a3d565b9350611b1f838584611af7565b82840190509392505050565b6000611b38828486611b06565b91508190509392505050565b7f4e616d65206d75737420636f6e7461696e206174206c6561737420332064696760008201527f6974732e00000000000000000000000000000000000000000000000000000000602082015250565b6000611ba0602483611208565b9150611bab82611b44565b604082019050919050565b60006020820190508181036000830152611bcf81611b93565b9050919050565b7f4578697374696e672062726f7773657200000000000000000000000000000000600082015250565b6000611c0c601083611208565b9150611c1782611bd6565b602082019050919050565b60006020820190508181036000830152611c3b81611bff565b9050919050565b7f526f6c65206d75737420636f6e7461696e206174206c6561737420332064696760008201527f6974732e00000000000000000000000000000000000000000000000000000000602082015250565b6000611c9e602483611208565b9150611ca982611c42565b604082019050919050565b60006020820190508181036000830152611ccd81611c91565b9050919050565b600073ffffffffffffffffffffffffffffffffffffffff82169050919050565b6000611cff82611cd4565b9050919050565b611d0f81611cf4565b82525050565b6000602082019050611d2a6000830184611d06565b92915050565b600081519050611d3f81611195565b92915050565b600060208284031215611d5b57611d5a611181565b5b6000611d6984828501611d30565b91505092915050565b7f4e6f7420656e6f75676820746f6b656e732e0000000000000000000000000000600082015250565b6000611da8601283611208565b9150611db382611d72565b602082019050919050565b60006020820190508181036000830152611dd781611d9b565b9050919050565b60006020601f8301049050919050565b600082821b905092915050565b600060088302611e2b7fffffffffffffffffffffffffffffffffffffffffffffffffffffffffffffffff82611dee565b611e358683611dee565b95508019841693508086168417925050509392505050565b6000819050919050565b6000611e72611e6d611e688461118b565b611e4d565b61118b565b9050919050565b6000819050919050565b611e8c83611e57565b611ea0611e9882611e79565b848454611dfb565b825550505050565b600090565b611eb5611ea8565b611ec0818484611e83565b505050565b5b81811015611ee457611ed9600082611ead565b600181019050611ec6565b5050565b601f821115611f2957611efa81611a48565b611f0384611dde565b81016020851015611f12578190505b611f26611f1e85611dde565b830182611ec5565b50505b505050565b600082821c905092915050565b6000611f4c60001984600802611f2e565b1980831691505092915050565b6000611f658383611f3b565b9150826002028217905092915050565b611f7e826111fd565b67ffffffffffffffff811115611f9757611f9661197c565b5b611fa18254611744565b611fac828285611ee8565b600060209050601f831160018114611fdf5760008415611fcd578287015190505b611fd78582611f59565b86555061203f565b601f198416611fed86611a48565b60005b8281101561201557848901518255600182019150602085019450602081019050611ff0565b86831015612032578489015161202e601f891682611f3b565b8355505b6001600288020188555050505b505050505050565b60006120538385611208565b9350612060838584611af7565b61206983611243565b840190509392505050565b600060608201905061208960008301886111ee565b818103602083015261209c818688612047565b905081810360408301526120b1818486612047565b90509695505050505050565b7f4e6f6e2d6578697374656e74206e617669676174696f6e000000000000000000600082015250565b60006120f3601783611208565b91506120fe826120bd565b602082019050919050565b60006020820190508181036000830152612122816120e6565b905091905056fea2646970667358221220963245c1ec47e7d53eab6c2581ac8368738a4269d787ba0406ac40d80da4fbb664736f6c63430008130033",
  "linkReferences": {},
  "deployedLinkReferences": {}
}