{
  "_format": "hh-sol-artifact-1",
  "contractName": "CryptoNautsSale",
  "sourceName": "contracts/CryptoNautsSale.sol",
  "abi": [
    {
      "inputs": [
        {
          "internalType": "contract CryptoNautsCoin",
          "name": "_token",
          "type": "address"
        },
        {
          "internalType": "address",
          "name": "_priceFeed",
          "type": "address"
        }
      ],
      "stateMutability": "nonpayable",
      "type": "constructor"
    },
    {
      "inputs": [
        {
          "internalType": "uint256",
          "name": "x",
          "type": "uint256"
        },
        {
          "internalType": "uint256",
          "name": "y",
          "type": "uint256"
        },
        {
          "internalType": "uint256",
          "name": "denominator",
          "type": "uint256"
        }
      ],
      "name": "PRBMath_MulDiv_Overflow",
      "type": "error"
    },
    {
      "anonymous": false,
      "inputs": [
        {
          "indexed": false,
          "internalType": "address",
          "name": "_buyer",
          "type": "address"
        },
        {
          "indexed": false,
          "internalType": "uint256",
          "name": "_amount",
          "type": "uint256"
        }
      ],
      "name": "Sell",
      "type": "event"
    },
    {
      "stateMutability": "payable",
      "type": "fallback"
    },
    {
      "inputs": [
        {
          "internalType": "uint256",
          "name": "_amount",
          "type": "uint256"
        },
        {
          "internalType": "uint256",
          "name": "_amountDecimals",
          "type": "uint256"
        }
      ],
      "name": "buyToken",
      "outputs": [],
      "stateMutability": "payable",
      "type": "function"
    },
    {
      "inputs": [
        {
          "internalType": "uint256",
          "name": "_numberOfTokens",
          "type": "uint256"
        }
      ],
      "name": "calculateTokenPrice",
      "outputs": [
        {
          "internalType": "UD60x18",
          "name": "",
          "type": "uint256"
        }
      ],
      "stateMutability": "view",
      "type": "function"
    },
    {
      "inputs": [],
      "name": "endSale",
      "outputs": [],
      "stateMutability": "nonpayable",
      "type": "function"
    },
    {
      "inputs": [],
      "name": "getETHPrice",
      "outputs": [
        {
          "internalType": "int256",
          "name": "",
          "type": "int256"
        }
      ],
      "stateMutability": "view",
      "type": "function"
    },
    {
      "inputs": [],
      "name": "getTokenPrice",
      "outputs": [
        {
          "internalType": "uint256",
          "name": "",
          "type": "uint256"
        }
      ],
      "stateMutability": "view",
      "type": "function"
    },
    {
      "inputs": [],
      "name": "getTokensSold",
      "outputs": [
        {
          "internalType": "uint256",
          "name": "",
          "type": "uint256"
        }
      ],
      "stateMutability": "view",
      "type": "function"
    },
    {
      "inputs": [],
      "name": "getTransactionCount",
      "outputs": [
        {
          "internalType": "uint256",
          "name": "",
          "type": "uint256"
        }
      ],
      "stateMutability": "view",
      "type": "function"
    },
    {
      "inputs": [
        {
          "internalType": "uint256",
          "name": "",
          "type": "uint256"
        }
      ],
      "name": "transaction",
      "outputs": [
        {
          "internalType": "address",
          "name": "buyer",
          "type": "address"
        },
        {
          "internalType": "uint256",
          "name": "amount",
          "type": "uint256"
        }
      ],
      "stateMutability": "view",
      "type": "function"
    },
    {
      "inputs": [],
      "name": "withdraw",
      "outputs": [],
      "stateMutability": "nonpayable",
      "type": "function"
    },
    {
      "stateMutability": "payable",
      "type": "receive"
    }
  ],
  "bytecode": "0x60a06040523480156200001157600080fd5b506040516200173b3803806200173b8339818101604052810190620000379190620001ac565b80600360006101000a81548173ffffffffffffffffffffffffffffffffffffffff021916908373ffffffffffffffffffffffffffffffffffffffff1602179055506101f4600281905550816000806101000a81548173ffffffffffffffffffffffffffffffffffffffff021916908373ffffffffffffffffffffffffffffffffffffffff1602179055503373ffffffffffffffffffffffffffffffffffffffff1660808173ffffffffffffffffffffffffffffffffffffffff16815250505050620001f3565b600080fd5b600073ffffffffffffffffffffffffffffffffffffffff82169050919050565b60006200012f8262000102565b9050919050565b6000620001438262000122565b9050919050565b620001558162000136565b81146200016157600080fd5b50565b60008151905062000175816200014a565b92915050565b620001868162000122565b81146200019257600080fd5b50565b600081519050620001a6816200017b565b92915050565b60008060408385031215620001c657620001c5620000fd565b5b6000620001d68582860162000164565b9250506020620001e98582860162000195565b9150509250929050565b60805161151762000224600039600081816106ac01528181610815015281816108a3015261093101526115176000f3fe60806040526004361061008a5760003560e01c80633ccfd60b116100595780633ccfd60b1461012e57806346bd0841146101455780634b94f50e14610183578063a607a8d9146101ae578063ee7c0db0146101d957610091565b8063057466ea14610093578063072de7f3146100af5780632e7700f0146100ec578063380d831b1461011757610091565b3661009157005b005b6100ad60048036038101906100a89190610c65565b610204565b005b3480156100bb57600080fd5b506100d660048036038101906100d19190610ca5565b610574565b6040516100e39190610d0d565b60405180910390f35b3480156100f857600080fd5b506101016106a0565b60405161010e9190610d37565b60405180910390f35b34801561012357600080fd5b5061012c6106aa565b005b34801561013a57600080fd5b506101436108a1565b005b34801561015157600080fd5b5061016c60048036038101906101679190610ca5565b610998565b60405161017a929190610d93565b60405180910390f35b34801561018f57600080fd5b506101986109dc565b6040516101a59190610d37565b60405180910390f35b3480156101ba57600080fd5b506101c36109e6565b6040516101d09190610dd5565b60405180910390f35b3480156101e557600080fd5b506101ee610a95565b6040516101fb9190610d37565b60405180910390f35b600061020f83610574565b9050600061021c34610a9f565b905060008411610261576040517f08c379a000000000000000000000000000000000000000000000000000000000815260040161025890610e73565b60405180910390fd5b600034116102a4576040517f08c379a000000000000000000000000000000000000000000000000000000000815260040161029b90610edf565b60405180910390fd5b6102ae8183610aa9565b6102ed576040517f08c379a00000000000000000000000000000000000000000000000000000000081526004016102e490610f71565b60405180910390fd5b8360008054906101000a900473ffffffffffffffffffffffffffffffffffffffff1673ffffffffffffffffffffffffffffffffffffffff166370a08231306040518263ffffffff1660e01b81526004016103479190610f91565b602060405180830381865afa158015610364573d6000803e3d6000fd5b505050506040513d601f19601f820116820180604052508101906103889190610fc1565b10156103c9576040517f08c379a00000000000000000000000000000000000000000000000000000000081526004016103c09061103a565b60405180910390fd5b60008054906101000a900473ffffffffffffffffffffffffffffffffffffffff1673ffffffffffffffffffffffffffffffffffffffff1663a9059cbb33856040518363ffffffff1660e01b8152600401610424929190610d93565b6020604051808303816000875af1158015610443573d6000803e3d6000fd5b505050506040513d601f19601f820116820180604052508101906104679190611092565b61047057600080fd5b836001600082825461048291906110ee565b9250508190555060405180604001604052803373ffffffffffffffffffffffffffffffffffffffff1681526020018581525060056000600454815260200190815260200160002060008201518160000160006101000a81548173ffffffffffffffffffffffffffffffffffffffff021916908373ffffffffffffffffffffffffffffffffffffffff160217905550602082015181600101559050506004600081548092919061053090611122565b91905055507f5e5e995ce3133561afceaa51a9a154d5db228cd7525d34df5185582c18d3df093385604051610566929190610d93565b60405180910390a150505050565b600080600360009054906101000a900473ffffffffffffffffffffffffffffffffffffffff1673ffffffffffffffffffffffffffffffffffffffff1663feaf968c6040518163ffffffff1660e01b815260040160a060405180830381865afa1580156105e4573d6000803e3d6000fd5b505050506040513d601f19601f8201168201806040525081019061060891906111d8565b50505091505060008113610651576040517f08c379a00000000000000000000000000000000000000000000000000000000081526004016106489061129f565b60405180910390fd5b600061066a620f42408361066591906112ee565b610a9f565b905060006106848560025461067f9190611358565b610a9f565b905060006106928284610ac7565b905080945050505050919050565b6000600454905090565b7f000000000000000000000000000000000000000000000000000000000000000073ffffffffffffffffffffffffffffffffffffffff163373ffffffffffffffffffffffffffffffffffffffff1614610738576040517f08c379a000000000000000000000000000000000000000000000000000000000815260040161072f9061140c565b60405180910390fd5b60008060009054906101000a900473ffffffffffffffffffffffffffffffffffffffff1673ffffffffffffffffffffffffffffffffffffffff166370a08231306040518263ffffffff1660e01b81526004016107949190610f91565b602060405180830381865afa1580156107b1573d6000803e3d6000fd5b505050506040513d601f19601f820116820180604052508101906107d59190610fc1565b905060008054906101000a900473ffffffffffffffffffffffffffffffffffffffff1673ffffffffffffffffffffffffffffffffffffffff1663a9059cbb7f0000000000000000000000000000000000000000000000000000000000000000836040518363ffffffff1660e01b8152600401610852929190611481565b6020604051808303816000875af1158015610871573d6000803e3d6000fd5b505050506040513d601f19601f820116820180604052508101906108959190611092565b61089e57600080fd5b50565b7f000000000000000000000000000000000000000000000000000000000000000073ffffffffffffffffffffffffffffffffffffffff163373ffffffffffffffffffffffffffffffffffffffff161461092f576040517f08c379a00000000000000000000000000000000000000000000000000000000081526004016109269061140c565b60405180910390fd5b7f000000000000000000000000000000000000000000000000000000000000000073ffffffffffffffffffffffffffffffffffffffff166108fc479081150290604051600060405180830381858888f19350505050158015610995573d6000803e3d6000fd5b50565b60056020528060005260406000206000915090508060000160009054906101000a900473ffffffffffffffffffffffffffffffffffffffff16908060010154905082565b6000600254905090565b600080600360009054906101000a900473ffffffffffffffffffffffffffffffffffffffff1673ffffffffffffffffffffffffffffffffffffffff1663feaf968c6040518163ffffffff1660e01b815260040160a060405180830381865afa158015610a56573d6000803e3d6000fd5b505050506040513d601f19601f82011682018060405250810190610a7a91906111d8565b505050915050620f424081610a8f91906112ee565b91505090565b6000600154905090565b6000819050919050565b6000610ab482610afc565b610abd84610afc565b1015905092915050565b6000610af4610aef610ad885610afc565b670de0b6b3a7640000610aea86610afc565b610b06565b610c20565b905092915050565b6000819050919050565b6000806000801985870985870292508281108382030391505060008103610b4157838281610b3757610b366112bf565b5b0492505050610c19565b838110610b89578585856040517f63a05778000000000000000000000000000000000000000000000000000000008152600401610b80939291906114aa565b60405180910390fd5b60008486880990508281118203915080830392506000600186190186169050600081870496508185049450600182836000030401905080840285179450600060028860030218905080880260020381029050808802600203810290508088026002038102905080880260020381029050808802600203810290508088026002038102905080860296505050505050505b9392505050565b6000819050919050565b600080fd5b6000819050919050565b610c4281610c2f565b8114610c4d57600080fd5b50565b600081359050610c5f81610c39565b92915050565b60008060408385031215610c7c57610c7b610c2a565b5b6000610c8a85828601610c50565b9250506020610c9b85828601610c50565b9150509250929050565b600060208284031215610cbb57610cba610c2a565b5b6000610cc984828501610c50565b91505092915050565b6000819050919050565b6000610cf7610cf2610ced84610c2f565b610cd2565b610c2f565b9050919050565b610d0781610cdc565b82525050565b6000602082019050610d226000830184610cfe565b92915050565b610d3181610c2f565b82525050565b6000602082019050610d4c6000830184610d28565b92915050565b600073ffffffffffffffffffffffffffffffffffffffff82169050919050565b6000610d7d82610d52565b9050919050565b610d8d81610d72565b82525050565b6000604082019050610da86000830185610d84565b610db56020830184610d28565b9392505050565b6000819050919050565b610dcf81610dbc565b82525050565b6000602082019050610dea6000830184610dc6565b92915050565b600082825260208201905092915050565b7f446f6573206e6f74206163636570742030206f7220736d616c6c6572206e756d60008201527f6265727320696e20616d6f756e74000000000000000000000000000000000000602082015250565b6000610e5d602e83610df0565b9150610e6882610e01565b604082019050919050565b60006020820190508181036000830152610e8c81610e50565b9050919050565b7f53656e642045544820746f2062757920736f6d6520746f6b656e730000000000600082015250565b6000610ec9601b83610df0565b9150610ed482610e93565b602082019050919050565b60006020820190508181036000830152610ef881610ebc565b9050919050565b7f5468657265206973206e6f7420656e6f75676820657468657220746f2062757960008201527f20746f6b656e7300000000000000000000000000000000000000000000000000602082015250565b6000610f5b602783610df0565b9150610f6682610eff565b604082019050919050565b60006020820190508181036000830152610f8a81610f4e565b9050919050565b6000602082019050610fa66000830184610d84565b92915050565b600081519050610fbb81610c39565b92915050565b600060208284031215610fd757610fd6610c2a565b5b6000610fe584828501610fac565b91505092915050565b7f496e73756666696369656e7420746f6b656e7320696e20636f6e747261637400600082015250565b6000611024601f83610df0565b915061102f82610fee565b602082019050919050565b6000602082019050818103600083015261105381611017565b9050919050565b60008115159050919050565b61106f8161105a565b811461107a57600080fd5b50565b60008151905061108c81611066565b92915050565b6000602082840312156110a8576110a7610c2a565b5b60006110b68482850161107d565b91505092915050565b7f4e487b7100000000000000000000000000000000000000000000000000000000600052601160045260246000fd5b60006110f982610c2f565b915061110483610c2f565b925082820190508082111561111c5761111b6110bf565b5b92915050565b600061112d82610c2f565b91507fffffffffffffffffffffffffffffffffffffffffffffffffffffffffffffffff820361115f5761115e6110bf565b5b600182019050919050565b600069ffffffffffffffffffff82169050919050565b6111898161116a565b811461119457600080fd5b50565b6000815190506111a681611180565b92915050565b6111b581610dbc565b81146111c057600080fd5b50565b6000815190506111d2816111ac565b92915050565b600080600080600060a086880312156111f4576111f3610c2a565b5b600061120288828901611197565b9550506020611213888289016111c3565b945050604061122488828901610fac565b935050606061123588828901610fac565b925050608061124688828901611197565b9150509295509295909350565b7f496e76616c696420707269636520646174610000000000000000000000000000600082015250565b6000611289601283610df0565b915061129482611253565b602082019050919050565b600060208201905081810360008301526112b88161127c565b9050919050565b7f4e487b7100000000000000000000000000000000000000000000000000000000600052601260045260246000fd5b60006112f982610dbc565b915061130483610dbc565b925082611314576113136112bf565b5b600160000383147f80000000000000000000000000000000000000000000000000000000000000008314161561134d5761134c6110bf565b5b828205905092915050565b600061136382610c2f565b915061136e83610c2f565b925082820261137c81610c2f565b91508282048414831517611393576113926110bf565b5b5092915050565b7f4f6e6c7920746865206f776e6572206f662074686520636f6e7472616374206360008201527f616e20657865637574652e000000000000000000000000000000000000000000602082015250565b60006113f6602b83610df0565b91506114018261139a565b604082019050919050565b60006020820190508181036000830152611425816113e9565b9050919050565b600061144761144261143d84610d52565b610cd2565b610d52565b9050919050565b60006114598261142c565b9050919050565b600061146b8261144e565b9050919050565b61147b81611460565b82525050565b60006040820190506114966000830185611472565b6114a36020830184610d28565b9392505050565b60006060820190506114bf6000830186610d28565b6114cc6020830185610d28565b6114d96040830184610d28565b94935050505056fea264697066735822122027343e844e4a642dccd33f86fae05cd9cc8fd0c1a933f789affaea39c494e39f64736f6c63430008130033",
  "linkReferences": {},
  "deployedLinkReferences": {}
}