{
  "_format": "hh-sol-artifact-1",
  "contractName": "CryptoNauts",
  "sourceName": "contracts/CryptoNauts.sol",
  "abi": [
    {
      "inputs": [
        {
          "internalType": "contract CryptoNautsCoin",
          "name": "_token",
          "type": "address"
        }
      ],
      "stateMutability": "nonpayable",
      "type": "constructor"
    },
    {
      "anonymous": false,
      "inputs": [
        {
          "indexed": false,
          "internalType": "uint256",
          "name": "id",
          "type": "uint256"
        }
      ],
      "name": "NautsDeleted",
      "type": "event"
    },
    {
      "anonymous": false,
      "inputs": [
        {
          "indexed": false,
          "internalType": "uint256",
          "name": "id",
          "type": "uint256"
        },
        {
          "indexed": false,
          "internalType": "string",
          "name": "name",
          "type": "string"
        },
        {
          "indexed": false,
          "internalType": "string",
          "name": "role",
          "type": "string"
        }
      ],
      "name": "NautsInfo",
      "type": "event"
    },
    {
      "inputs": [
        {
          "internalType": "string",
          "name": "_email",
          "type": "string"
        },
        {
          "internalType": "string",
          "name": "_name",
          "type": "string"
        },
        {
          "internalType": "string",
          "name": "_role",
          "type": "string"
        }
      ],
      "name": "createNauts",
      "outputs": [],
      "stateMutability": "nonpayable",
      "type": "function"
    },
    {
      "inputs": [
        {
          "internalType": "uint256",
          "name": "id",
          "type": "uint256"
        }
      ],
      "name": "deleteNauts",
      "outputs": [],
      "stateMutability": "nonpayable",
      "type": "function"
    },
    {
      "inputs": [],
      "name": "getAllNauts",
      "outputs": [
        {
          "components": [
            {
              "internalType": "string",
              "name": "email",
              "type": "string"
            },
            {
              "internalType": "string",
              "name": "name",
              "type": "string"
            },
            {
              "internalType": "string",
              "name": "role",
              "type": "string"
            }
          ],
          "internalType": "struct CryptoNauts.Nauts[]",
          "name": "",
          "type": "tuple[]"
        }
      ],
      "stateMutability": "view",
      "type": "function"
    },
    {
      "inputs": [
        {
          "internalType": "uint256",
          "name": "id",
          "type": "uint256"
        }
      ],
      "name": "getNauts",
      "outputs": [
        {
          "internalType": "string",
          "name": "",
          "type": "string"
        },
        {
          "internalType": "string",
          "name": "",
          "type": "string"
        }
      ],
      "stateMutability": "view",
      "type": "function"
    },
    {
      "inputs": [],
      "name": "getNautsCount",
      "outputs": [
        {
          "internalType": "uint256",
          "name": "",
          "type": "uint256"
        }
      ],
      "stateMutability": "view",
      "type": "function"
    },
    {
      "inputs": [],
      "name": "getPriceRegister",
      "outputs": [
        {
          "internalType": "uint256",
          "name": "",
          "type": "uint256"
        }
      ],
      "stateMutability": "view",
      "type": "function"
    },
    {
      "inputs": [
        {
          "internalType": "string",
          "name": "_email",
          "type": "string"
        }
      ],
      "name": "nautsExistsByEmail",
      "outputs": [
        {
          "internalType": "bool",
          "name": "",
          "type": "bool"
        }
      ],
      "stateMutability": "view",
      "type": "function"
    },
    {
      "inputs": [
        {
          "internalType": "uint256",
          "name": "id",
          "type": "uint256"
        },
        {
          "internalType": "string",
          "name": "_newEmail",
          "type": "string"
        },
        {
          "internalType": "string",
          "name": "_newName",
          "type": "string"
        },
        {
          "internalType": "string",
          "name": "_newRole",
          "type": "string"
        }
      ],
      "name": "updateNauts",
      "outputs": [],
      "stateMutability": "nonpayable",
      "type": "function"
    }
  ],
  "bytecode": "0x60a06040523480156200001157600080fd5b50604051620025f4380380620025f4833981810160405281019062000037919062000274565b3373ffffffffffffffffffffffffffffffffffffffff1660808173ffffffffffffffffffffffffffffffffffffffff1681525050806000806101000a81548173ffffffffffffffffffffffffffffffffffffffff021916908373ffffffffffffffffffffffffffffffffffffffff1602179055506113886001819055506040518060400160405280601e81526020017f66656c697065636f727265696173696c7661406f75746c6f6f6b2e636f6d00008152506003600080815260200190815260200160002060000190816200010e919062000520565b506040518060400160405280601481526020017f46656c69706520436f72726569612053696c766100000000000000000000000081525060036000808152602001908152602001600020600101908162000169919062000520565b506040518060400160405280600681526020017f50696c6f746f0000000000000000000000000000000000000000000000000000815250600360008081526020019081526020016000206002019081620001c4919062000520565b506002600090806001815401808255809150506001900390600052602060002001600090919091909150555062000607565b600080fd5b600073ffffffffffffffffffffffffffffffffffffffff82169050919050565b60006200022882620001fb565b9050919050565b60006200023c826200021b565b9050919050565b6200024e816200022f565b81146200025a57600080fd5b50565b6000815190506200026e8162000243565b92915050565b6000602082840312156200028d576200028c620001f6565b5b60006200029d848285016200025d565b91505092915050565b600081519050919050565b7f4e487b7100000000000000000000000000000000000000000000000000000000600052604160045260246000fd5b7f4e487b7100000000000000000000000000000000000000000000000000000000600052602260045260246000fd5b600060028204905060018216806200032857607f821691505b6020821081036200033e576200033d620002e0565b5b50919050565b60008190508160005260206000209050919050565b60006020601f8301049050919050565b600082821b905092915050565b600060088302620003a87fffffffffffffffffffffffffffffffffffffffffffffffffffffffffffffffff8262000369565b620003b4868362000369565b95508019841693508086168417925050509392505050565b6000819050919050565b6000819050919050565b600062000401620003fb620003f584620003cc565b620003d6565b620003cc565b9050919050565b6000819050919050565b6200041d83620003e0565b620004356200042c8262000408565b84845462000376565b825550505050565b600090565b6200044c6200043d565b6200045981848462000412565b505050565b5b8181101562000481576200047560008262000442565b6001810190506200045f565b5050565b601f821115620004d0576200049a8162000344565b620004a58462000359565b81016020851015620004b5578190505b620004cd620004c48562000359565b8301826200045e565b50505b505050565b600082821c905092915050565b6000620004f560001984600802620004d5565b1980831691505092915050565b6000620005108383620004e2565b9150826002028217905092915050565b6200052b82620002a6565b67ffffffffffffffff811115620005475762000546620002b1565b5b6200055382546200030f565b6200056082828562000485565b600060209050601f83116001811462000598576000841562000583578287015190505b6200058f858262000502565b865550620005ff565b601f198416620005a88662000344565b60005b82811015620005d257848901518255600182019150602085019450602081019050620005ab565b86831015620005f25784890151620005ee601f891682620004e2565b8355505b6001600288020188555050505b505050505050565b608051611fca6200062a600039600081816103470152610cbc0152611fca6000f3fe608060405234801561001057600080fd5b50600436106100885760003560e01c806387d20eec1161005b57806387d20eec1461011657806390952fdf14610146578063969d7c0314610162578063ac1b49481461018057610088565b806337747c0f1461008d578063413d2f2a146100be57806356a945c7146100da5780637ba92252146100f8575b600080fd5b6100a760048036038101906100a29190611071565b61019c565b6040516100b592919061112e565b60405180910390f35b6100d860048036038101906100d39190611071565b610345565b005b6100e2610580565b6040516100ef9190611174565b60405180910390f35b61010061058d565b60405161010d91906112f9565b60405180910390f35b610130600480360381019061012b9190611380565b610827565b60405161013d91906113e8565b60405180910390f35b610160600480360381019061015b9190611403565b610919565b005b61016a610cb0565b6040516101779190611174565b60405180910390f35b61019a600480360381019061019591906114b7565b610cba565b005b60608060006003600085815260200190815260200160002060010180546101c2906115af565b905011610204576040517f08c379a00000000000000000000000000000000000000000000000000000000081526004016101fb9061162c565b60405180910390fd5b6000600360008581526020019081526020016000209050806001018160020181805461022f906115af565b80601f016020809104026020016040519081016040528092919081815260200182805461025b906115af565b80156102a85780601f1061027d576101008083540402835291602001916102a8565b820191906000526020600020905b81548152906001019060200180831161028b57829003601f168201915b505050505091508080546102bb906115af565b80601f01602080910402602001604051908101604052809291908181526020018280546102e7906115af565b80156103345780601f1061030957610100808354040283529160200191610334565b820191906000526020600020905b81548152906001019060200180831161031757829003601f168201915b505050505090509250925050915091565b7f000000000000000000000000000000000000000000000000000000000000000073ffffffffffffffffffffffffffffffffffffffff163373ffffffffffffffffffffffffffffffffffffffff16146103d3576040517f08c379a00000000000000000000000000000000000000000000000000000000081526004016103ca906116be565b60405180910390fd5b60006003600083815260200190815260200160002060010180546103f6906115af565b905011610438576040517f08c379a000000000000000000000000000000000000000000000000000000000815260040161042f9061162c565b60405180910390fd5b600360008281526020019081526020016000206000808201600061045c9190610fb3565b60018201600061046c9190610fb3565b60028201600061047c9190610fb3565b505060005b6002805490508110156105455781600282815481106104a3576104a26116de565b5b90600052602060002001540361053257600260016002805490506104c7919061173c565b815481106104d8576104d76116de565b5b9060005260206000200154600282815481106104f7576104f66116de565b5b9060005260206000200181905550600280548061051757610516611770565b5b60019003818190600052602060002001600090559055610545565b808061053d9061179f565b915050610481565b507fde549ccf51cdd42293a2fdbbf166f6d417621cde2d99ed9c20b085c24f0577c8816040516105759190611174565b60405180910390a150565b6000600280549050905090565b6060600060028054905067ffffffffffffffff8111156105b0576105af6117e7565b5b6040519080825280602002602001820160405280156105e957816020015b6105d6610ff3565b8152602001906001900390816105ce5790505b50905060005b60028054905081101561081f576003600060028381548110610614576106136116de565b5b90600052602060002001548152602001908152602001600020604051806060016040529081600082018054610648906115af565b80601f0160208091040260200160405190810160405280929190818152602001828054610674906115af565b80156106c15780601f10610696576101008083540402835291602001916106c1565b820191906000526020600020905b8154815290600101906020018083116106a457829003601f168201915b505050505081526020016001820180546106da906115af565b80601f0160208091040260200160405190810160405280929190818152602001828054610706906115af565b80156107535780601f1061072857610100808354040283529160200191610753565b820191906000526020600020905b81548152906001019060200180831161073657829003601f168201915b5050505050815260200160028201805461076c906115af565b80601f0160208091040260200160405190810160405280929190818152602001828054610798906115af565b80156107e55780601f106107ba576101008083540402835291602001916107e5565b820191906000526020600020905b8154815290600101906020018083116107c857829003601f168201915b505050505081525050828281518110610801576108006116de565b5b602002602001018190525080806108179061179f565b9150506105ef565b508091505090565b600080600090506003848490501015610875576040517f08c379a000000000000000000000000000000000000000000000000000000000815260040161086c90611888565b60405180910390fd5b60005b60028054905081101561090e576000600360008381526020019081526020016000206000016040516020016108ad919061194b565b6040516020818303038152906040528051906020012086866040516020016108d6929190611996565b6040516020818303038152906040528051906020012014905080156108fa57600192505b5080806109069061179f565b915050610878565b508091505092915050565b60006109258787610827565b9050600015158115151461096e576040517f08c379a0000000000000000000000000000000000000000000000000000000008152600401610965906119fb565b60405180910390fd5b60038585905010156109b5576040517f08c379a00000000000000000000000000000000000000000000000000000000081526004016109ac90611a8d565b60405180910390fd5b60038383905010156109fc576040517f08c379a00000000000000000000000000000000000000000000000000000000081526004016109f390611b1f565b60405180910390fd5b60015460008054906101000a900473ffffffffffffffffffffffffffffffffffffffff1673ffffffffffffffffffffffffffffffffffffffff166370a08231336040518263ffffffff1660e01b8152600401610a589190611b80565b602060405180830381865afa158015610a75573d6000803e3d6000fd5b505050506040513d601f19601f82011682018060405250810190610a999190611bb0565b1015610ada576040517f08c379a0000000000000000000000000000000000000000000000000000000008152600401610ad190611c29565b60405180910390fd5b600280805490509080600181540180825580915050600190039060005260206000200160009091909190915055604051806060016040528088888080601f016020809104026020016040519081016040528093929190818152602001838380828437600081840152601f19601f82011690508083019250505050505050815260200186868080601f016020809104026020016040519081016040528093929190818152602001838380828437600081840152601f19601f82011690508083019250505050505050815260200184848080601f016020809104026020016040519081016040528093929190818152602001838380828437600081840152601f19601f82011690508083019250505050505050815250600360006001600280549050610c04919061173c565b81526020019081526020016000206000820151816000019081610c279190611de0565b506020820151816001019081610c3d9190611de0565b506040820151816002019081610c539190611de0565b509050507f92adf62538129b7ada01d117dfcf29b6d16fea03d827fcb9b90e6ac5da2145df6001600280549050610c8a919061173c565b86868686604051610c9f959493929190611edf565b60405180910390a150505050505050565b6000600154905090565b7f000000000000000000000000000000000000000000000000000000000000000073ffffffffffffffffffffffffffffffffffffffff163373ffffffffffffffffffffffffffffffffffffffff1614610d48576040517f08c379a0000000000000000000000000000000000000000000000000000000008152600401610d3f906116be565b60405180910390fd5b6000610d548787610827565b90506003858590501015610d9d576040517f08c379a0000000000000000000000000000000000000000000000000000000008152600401610d9490611a8d565b60405180910390fd5b6003838390501015610de4576040517f08c379a0000000000000000000000000000000000000000000000000000000008152600401610ddb90611b1f565b60405180910390fd5b6000151581151514610e2b576040517f08c379a0000000000000000000000000000000000000000000000000000000008152600401610e2290611f74565b60405180910390fd5b604051806060016040528088888080601f016020809104026020016040519081016040528093929190818152602001838380828437600081840152601f19601f82011690508083019250505050505050815260200186868080601f016020809104026020016040519081016040528093929190818152602001838380828437600081840152601f19601f82011690508083019250505050505050815260200184848080601f016020809104026020016040519081016040528093929190818152602001838380828437600081840152601f19601f82011690508083019250505050505050815250600360008a81526020019081526020016000206000820151816000019081610f3a9190611de0565b506020820151816001019081610f509190611de0565b506040820151816002019081610f669190611de0565b509050507f92adf62538129b7ada01d117dfcf29b6d16fea03d827fcb9b90e6ac5da2145df8886868686604051610fa1959493929190611edf565b60405180910390a15050505050505050565b508054610fbf906115af565b6000825580601f10610fd15750610ff0565b601f016020900490600052602060002090810190610fef9190611014565b5b50565b60405180606001604052806060815260200160608152602001606081525090565b5b8082111561102d576000816000905550600101611015565b5090565b600080fd5b600080fd5b6000819050919050565b61104e8161103b565b811461105957600080fd5b50565b60008135905061106b81611045565b92915050565b60006020828403121561108757611086611031565b5b60006110958482850161105c565b91505092915050565b600081519050919050565b600082825260208201905092915050565b60005b838110156110d85780820151818401526020810190506110bd565b60008484015250505050565b6000601f19601f8301169050919050565b60006111008261109e565b61110a81856110a9565b935061111a8185602086016110ba565b611123816110e4565b840191505092915050565b6000604082019050818103600083015261114881856110f5565b9050818103602083015261115c81846110f5565b90509392505050565b61116e8161103b565b82525050565b60006020820190506111896000830184611165565b92915050565b600081519050919050565b600082825260208201905092915050565b6000819050602082019050919050565b600082825260208201905092915050565b60006111d78261109e565b6111e181856111bb565b93506111f18185602086016110ba565b6111fa816110e4565b840191505092915050565b6000606083016000830151848203600086015261122282826111cc565b9150506020830151848203602086015261123c82826111cc565b9150506040830151848203604086015261125682826111cc565b9150508091505092915050565b600061126f8383611205565b905092915050565b6000602082019050919050565b600061128f8261118f565b611299818561119a565b9350836020820285016112ab856111ab565b8060005b858110156112e757848403895281516112c88582611263565b94506112d383611277565b925060208a019950506001810190506112af565b50829750879550505050505092915050565b600060208201905081810360008301526113138184611284565b905092915050565b600080fd5b600080fd5b600080fd5b60008083601f8401126113405761133f61131b565b5b8235905067ffffffffffffffff81111561135d5761135c611320565b5b60208301915083600182028301111561137957611378611325565b5b9250929050565b6000806020838503121561139757611396611031565b5b600083013567ffffffffffffffff8111156113b5576113b4611036565b5b6113c18582860161132a565b92509250509250929050565b60008115159050919050565b6113e2816113cd565b82525050565b60006020820190506113fd60008301846113d9565b92915050565b600080600080600080606087890312156114205761141f611031565b5b600087013567ffffffffffffffff81111561143e5761143d611036565b5b61144a89828a0161132a565b9650965050602087013567ffffffffffffffff81111561146d5761146c611036565b5b61147989828a0161132a565b9450945050604087013567ffffffffffffffff81111561149c5761149b611036565b5b6114a889828a0161132a565b92509250509295509295509295565b60008060008060008060006080888a0312156114d6576114d5611031565b5b60006114e48a828b0161105c565b975050602088013567ffffffffffffffff81111561150557611504611036565b5b6115118a828b0161132a565b9650965050604088013567ffffffffffffffff81111561153457611533611036565b5b6115408a828b0161132a565b9450945050606088013567ffffffffffffffff81111561156357611562611036565b5b61156f8a828b0161132a565b925092505092959891949750929550565b7f4e487b7100000000000000000000000000000000000000000000000000000000600052602260045260246000fd5b600060028204905060018216806115c757607f821691505b6020821081036115da576115d9611580565b5b50919050565b7f4e6f6e2d6578697374656e742062726f777365722e0000000000000000000000600082015250565b60006116166015836110a9565b9150611621826115e0565b602082019050919050565b6000602082019050818103600083015261164581611609565b9050919050565b7f4f6e6c7920746865206f776e6572206f662074686520636f6e7472616374206360008201527f616e20657865637574652e000000000000000000000000000000000000000000602082015250565b60006116a8602b836110a9565b91506116b38261164c565b604082019050919050565b600060208201905081810360008301526116d78161169b565b9050919050565b7f4e487b7100000000000000000000000000000000000000000000000000000000600052603260045260246000fd5b7f4e487b7100000000000000000000000000000000000000000000000000000000600052601160045260246000fd5b60006117478261103b565b91506117528361103b565b925082820390508181111561176a5761176961170d565b5b92915050565b7f4e487b7100000000000000000000000000000000000000000000000000000000600052603160045260246000fd5b60006117aa8261103b565b91507fffffffffffffffffffffffffffffffffffffffffffffffffffffffffffffffff82036117dc576117db61170d565b5b600182019050919050565b7f4e487b7100000000000000000000000000000000000000000000000000000000600052604160045260246000fd5b7f456d61696c206d75737420636f6e7461696e206174206c65617374203320646960008201527f676974732e000000000000000000000000000000000000000000000000000000602082015250565b60006118726025836110a9565b915061187d82611816565b604082019050919050565b600060208201905081810360008301526118a181611865565b9050919050565b600081905092915050565b60008190508160005260206000209050919050565b600081546118d5816115af565b6118df81866118a8565b945060018216600081146118fa576001811461190f57611942565b60ff1983168652811515820286019350611942565b611918856118b3565b60005b8381101561193a5781548189015260018201915060208101905061191b565b838801955050505b50505092915050565b600061195782846118c8565b915081905092915050565b82818337600083830152505050565b600061197d83856118a8565b935061198a838584611962565b82840190509392505050565b60006119a3828486611971565b91508190509392505050565b7f4578697374696e672062726f7773657200000000000000000000000000000000600082015250565b60006119e56010836110a9565b91506119f0826119af565b602082019050919050565b60006020820190508181036000830152611a14816119d8565b9050919050565b7f4e616d65206d75737420636f6e7461696e206174206c6561737420332064696760008201527f6974732e00000000000000000000000000000000000000000000000000000000602082015250565b6000611a776024836110a9565b9150611a8282611a1b565b604082019050919050565b60006020820190508181036000830152611aa681611a6a565b9050919050565b7f526f6c65206d75737420636f6e7461696e206174206c6561737420332064696760008201527f6974732e00000000000000000000000000000000000000000000000000000000602082015250565b6000611b096024836110a9565b9150611b1482611aad565b604082019050919050565b60006020820190508181036000830152611b3881611afc565b9050919050565b600073ffffffffffffffffffffffffffffffffffffffff82169050919050565b6000611b6a82611b3f565b9050919050565b611b7a81611b5f565b82525050565b6000602082019050611b956000830184611b71565b92915050565b600081519050611baa81611045565b92915050565b600060208284031215611bc657611bc5611031565b5b6000611bd484828501611b9b565b91505092915050565b7f4e6f7420656e6f75676820746f6b656e732e0000000000000000000000000000600082015250565b6000611c136012836110a9565b9150611c1e82611bdd565b602082019050919050565b60006020820190508181036000830152611c4281611c06565b9050919050565b60006020601f8301049050919050565b600082821b905092915050565b600060088302611c967fffffffffffffffffffffffffffffffffffffffffffffffffffffffffffffffff82611c59565b611ca08683611c59565b95508019841693508086168417925050509392505050565b6000819050919050565b6000611cdd611cd8611cd38461103b565b611cb8565b61103b565b9050919050565b6000819050919050565b611cf783611cc2565b611d0b611d0382611ce4565b848454611c66565b825550505050565b600090565b611d20611d13565b611d2b818484611cee565b505050565b5b81811015611d4f57611d44600082611d18565b600181019050611d31565b5050565b601f821115611d9457611d65816118b3565b611d6e84611c49565b81016020851015611d7d578190505b611d91611d8985611c49565b830182611d30565b50505b505050565b600082821c905092915050565b6000611db760001984600802611d99565b1980831691505092915050565b6000611dd08383611da6565b9150826002028217905092915050565b611de98261109e565b67ffffffffffffffff811115611e0257611e016117e7565b5b611e0c82546115af565b611e17828285611d53565b600060209050601f831160018114611e4a5760008415611e38578287015190505b611e428582611dc4565b865550611eaa565b601f198416611e58866118b3565b60005b82811015611e8057848901518255600182019150602085019450602081019050611e5b565b86831015611e9d5784890151611e99601f891682611da6565b8355505b6001600288020188555050505b505050505050565b6000611ebe83856110a9565b9350611ecb838584611962565b611ed4836110e4565b840190509392505050565b6000606082019050611ef46000830188611165565b8181036020830152611f07818688611eb2565b90508181036040830152611f1c818486611eb2565b90509695505050505050565b7f4e61766567616e7465206578697374656e746500000000000000000000000000600082015250565b6000611f5e6013836110a9565b9150611f6982611f28565b602082019050919050565b60006020820190508181036000830152611f8d81611f51565b905091905056fea2646970667358221220a8fbcf2fd32b395e69123a2c9fa9fe7b9d1e951adb59062254cc190a916db89764736f6c63430008130033",
  "linkReferences": {},
  "deployedLinkReferences": {}
}