{
  "_format": "hh-sol-artifact-1",
  "contractName": "CryptoNautsSale",
  "sourceName": "contracts/CryptoNautsSale.sol",
  "abi": [
    {
      "inputs": [
        {
          "internalType": "contract CryptoNautsCoin",
          "name": "_token",
          "type": "address"
        }
      ],
      "stateMutability": "nonpayable",
      "type": "constructor"
    },
    {
      "inputs": [
        {
          "internalType": "uint256",
          "name": "x",
          "type": "uint256"
        },
        {
          "internalType": "uint256",
          "name": "y",
          "type": "uint256"
        },
        {
          "internalType": "uint256",
          "name": "denominator",
          "type": "uint256"
        }
      ],
      "name": "PRBMath_MulDiv_Overflow",
      "type": "error"
    },
    {
      "anonymous": false,
      "inputs": [
        {
          "indexed": false,
          "internalType": "address",
          "name": "_buyer",
          "type": "address"
        },
        {
          "indexed": false,
          "internalType": "uint256",
          "name": "_amount",
          "type": "uint256"
        }
      ],
      "name": "Sell",
      "type": "event"
    },
    {
      "inputs": [
        {
          "internalType": "uint256",
          "name": "_amount",
          "type": "uint256"
        }
      ],
      "name": "buyToken",
      "outputs": [],
      "stateMutability": "payable",
      "type": "function"
    },
    {
      "inputs": [
        {
          "internalType": "uint256",
          "name": "_numberOfTokens",
          "type": "uint256"
        }
      ],
      "name": "calculateTokenPrice",
      "outputs": [
        {
          "internalType": "UD60x18",
          "name": "",
          "type": "uint256"
        }
      ],
      "stateMutability": "view",
      "type": "function"
    },
    {
      "inputs": [],
      "name": "deposit",
      "outputs": [],
      "stateMutability": "payable",
      "type": "function"
    },
    {
      "inputs": [],
      "name": "endSale",
      "outputs": [],
      "stateMutability": "nonpayable",
      "type": "function"
    },
    {
      "inputs": [],
      "name": "getETHPrice",
      "outputs": [
        {
          "internalType": "int256",
          "name": "",
          "type": "int256"
        }
      ],
      "stateMutability": "view",
      "type": "function"
    },
    {
      "inputs": [],
      "name": "getTokenPrice",
      "outputs": [
        {
          "internalType": "uint256",
          "name": "",
          "type": "uint256"
        }
      ],
      "stateMutability": "view",
      "type": "function"
    },
    {
      "inputs": [],
      "name": "getTokensSold",
      "outputs": [
        {
          "internalType": "uint256",
          "name": "",
          "type": "uint256"
        }
      ],
      "stateMutability": "view",
      "type": "function"
    },
    {
      "inputs": [],
      "name": "getTransactionCount",
      "outputs": [
        {
          "internalType": "uint256",
          "name": "",
          "type": "uint256"
        }
      ],
      "stateMutability": "view",
      "type": "function"
    },
    {
      "inputs": [
        {
          "internalType": "uint256",
          "name": "",
          "type": "uint256"
        }
      ],
      "name": "transaction",
      "outputs": [
        {
          "internalType": "address",
          "name": "buyer",
          "type": "address"
        },
        {
          "internalType": "uint256",
          "name": "amount",
          "type": "uint256"
        }
      ],
      "stateMutability": "view",
      "type": "function"
    },
    {
      "inputs": [],
      "name": "withdraw",
      "outputs": [],
      "stateMutability": "nonpayable",
      "type": "function"
    }
  ],
  "bytecode": "0x60a060405234801561001057600080fd5b506040516116a33803806116a38339818101604052810190610032919061017f565b73694aa1769357215de4fac081bf1f309adc325306600360006101000a81548173ffffffffffffffffffffffffffffffffffffffff021916908373ffffffffffffffffffffffffffffffffffffffff1602179055506101f4600281905550806000806101000a81548173ffffffffffffffffffffffffffffffffffffffff021916908373ffffffffffffffffffffffffffffffffffffffff1602179055503373ffffffffffffffffffffffffffffffffffffffff1660808173ffffffffffffffffffffffffffffffffffffffff1681525050506101ac565b600080fd5b600073ffffffffffffffffffffffffffffffffffffffff82169050919050565b600061013a8261010f565b9050919050565b600061014c8261012f565b9050919050565b61015c81610141565b811461016757600080fd5b50565b60008151905061017981610153565b92915050565b6000602082840312156101955761019461010a565b5b60006101a38482850161016a565b91505092915050565b6080516114c76101dc600039600081816106c001528181610829015281816108b7015261094501526114c76000f3fe6080604052600436106100915760003560e01c806346bd08411161005957806346bd0841146101485780634b94f50e14610186578063a607a8d9146101b1578063d0e30db0146101dc578063ee7c0db0146101e657610091565b8063072de7f3146100965780632d296bf1146100d35780632e7700f0146100ef578063380d831b1461011a5780633ccfd60b14610131575b600080fd5b3480156100a257600080fd5b506100bd60048036038101906100b89190610c7b565b610211565b6040516100ca9190610ce3565b60405180910390f35b6100ed60048036038101906100e89190610c7b565b61033d565b005b3480156100fb57600080fd5b506101046106b4565b6040516101119190610d0d565b60405180910390f35b34801561012657600080fd5b5061012f6106be565b005b34801561013d57600080fd5b506101466108b5565b005b34801561015457600080fd5b5061016f600480360381019061016a9190610c7b565b6109ac565b60405161017d929190610d69565b60405180910390f35b34801561019257600080fd5b5061019b6109f0565b6040516101a89190610d0d565b60405180910390f35b3480156101bd57600080fd5b506101c66109fa565b6040516101d39190610dab565b60405180910390f35b6101e4610aa9565b005b3480156101f257600080fd5b506101fb610aab565b6040516102089190610d0d565b60405180910390f35b600080600360009054906101000a900473ffffffffffffffffffffffffffffffffffffffff1673ffffffffffffffffffffffffffffffffffffffff1663feaf968c6040518163ffffffff1660e01b815260040160a060405180830381865afa158015610281573d6000803e3d6000fd5b505050506040513d601f19601f820116820180604052508101906102a59190610e49565b505050915050600081136102ee576040517f08c379a00000000000000000000000000000000000000000000000000000000081526004016102e590610f21565b60405180910390fd5b6000610307620f4240836103029190610f9f565b610ab5565b905060006103218560025461031c9190611009565b610ab5565b9050600061032f8284610abf565b905080945050505050919050565b600061034882610211565b9050600061035534610ab5565b90506000831161039a576040517f08c379a0000000000000000000000000000000000000000000000000000000008152600401610391906110bd565b60405180910390fd5b600034116103dd576040517f08c379a00000000000000000000000000000000000000000000000000000000081526004016103d490611129565b60405180910390fd5b6103e78183610af4565b610426576040517f08c379a000000000000000000000000000000000000000000000000000000000815260040161041d906111bb565b60405180910390fd5b8260008054906101000a900473ffffffffffffffffffffffffffffffffffffffff1673ffffffffffffffffffffffffffffffffffffffff166370a08231306040518263ffffffff1660e01b815260040161048091906111db565b602060405180830381865afa15801561049d573d6000803e3d6000fd5b505050506040513d601f19601f820116820180604052508101906104c191906111f6565b1015610502576040517f08c379a00000000000000000000000000000000000000000000000000000000081526004016104f99061126f565b60405180910390fd5b60008054906101000a900473ffffffffffffffffffffffffffffffffffffffff1673ffffffffffffffffffffffffffffffffffffffff1663a9059cbb33856040518363ffffffff1660e01b815260040161055d929190610d69565b6020604051808303816000875af115801561057c573d6000803e3d6000fd5b505050506040513d601f19601f820116820180604052508101906105a091906112c7565b6105a957600080fd5b6105b1610aa9565b82600160008282546105c391906112f4565b9250508190555060405180604001604052803373ffffffffffffffffffffffffffffffffffffffff1681526020018481525060056000600454815260200190815260200160002060008201518160000160006101000a81548173ffffffffffffffffffffffffffffffffffffffff021916908373ffffffffffffffffffffffffffffffffffffffff160217905550602082015181600101559050506004600081548092919061067190611328565b91905055507f5e5e995ce3133561afceaa51a9a154d5db228cd7525d34df5185582c18d3df0933846040516106a7929190610d69565b60405180910390a1505050565b6000600454905090565b7f000000000000000000000000000000000000000000000000000000000000000073ffffffffffffffffffffffffffffffffffffffff163373ffffffffffffffffffffffffffffffffffffffff161461074c576040517f08c379a0000000000000000000000000000000000000000000000000000000008152600401610743906113bc565b60405180910390fd5b60008060009054906101000a900473ffffffffffffffffffffffffffffffffffffffff1673ffffffffffffffffffffffffffffffffffffffff166370a08231306040518263ffffffff1660e01b81526004016107a891906111db565b602060405180830381865afa1580156107c5573d6000803e3d6000fd5b505050506040513d601f19601f820116820180604052508101906107e991906111f6565b905060008054906101000a900473ffffffffffffffffffffffffffffffffffffffff1673ffffffffffffffffffffffffffffffffffffffff1663a9059cbb7f0000000000000000000000000000000000000000000000000000000000000000836040518363ffffffff1660e01b8152600401610866929190611431565b6020604051808303816000875af1158015610885573d6000803e3d6000fd5b505050506040513d601f19601f820116820180604052508101906108a991906112c7565b6108b257600080fd5b50565b7f000000000000000000000000000000000000000000000000000000000000000073ffffffffffffffffffffffffffffffffffffffff163373ffffffffffffffffffffffffffffffffffffffff1614610943576040517f08c379a000000000000000000000000000000000000000000000000000000000815260040161093a906113bc565b60405180910390fd5b7f000000000000000000000000000000000000000000000000000000000000000073ffffffffffffffffffffffffffffffffffffffff166108fc479081150290604051600060405180830381858888f193505050501580156109a9573d6000803e3d6000fd5b50565b60056020528060005260406000206000915090508060000160009054906101000a900473ffffffffffffffffffffffffffffffffffffffff16908060010154905082565b6000600254905090565b600080600360009054906101000a900473ffffffffffffffffffffffffffffffffffffffff1673ffffffffffffffffffffffffffffffffffffffff1663feaf968c6040518163ffffffff1660e01b815260040160a060405180830381865afa158015610a6a573d6000803e3d6000fd5b505050506040513d601f19601f82011682018060405250810190610a8e9190610e49565b505050915050620f424081610aa39190610f9f565b91505090565b565b6000600154905090565b6000819050919050565b6000610aec610ae7610ad085610b12565b670de0b6b3a7640000610ae286610b12565b610b1c565b610c36565b905092915050565b6000610aff82610b12565b610b0884610b12565b1015905092915050565b6000819050919050565b6000806000801985870985870292508281108382030391505060008103610b5757838281610b4d57610b4c610f41565b5b0492505050610c2f565b838110610b9f578585856040517f63a05778000000000000000000000000000000000000000000000000000000008152600401610b969392919061145a565b60405180910390fd5b60008486880990508281118203915080830392506000600186190186169050600081870496508185049450600182836000030401905080840285179450600060028860030218905080880260020381029050808802600203810290508088026002038102905080880260020381029050808802600203810290508088026002038102905080860296505050505050505b9392505050565b6000819050919050565b600080fd5b6000819050919050565b610c5881610c45565b8114610c6357600080fd5b50565b600081359050610c7581610c4f565b92915050565b600060208284031215610c9157610c90610c40565b5b6000610c9f84828501610c66565b91505092915050565b6000819050919050565b6000610ccd610cc8610cc384610c45565b610ca8565b610c45565b9050919050565b610cdd81610cb2565b82525050565b6000602082019050610cf86000830184610cd4565b92915050565b610d0781610c45565b82525050565b6000602082019050610d226000830184610cfe565b92915050565b600073ffffffffffffffffffffffffffffffffffffffff82169050919050565b6000610d5382610d28565b9050919050565b610d6381610d48565b82525050565b6000604082019050610d7e6000830185610d5a565b610d8b6020830184610cfe565b9392505050565b6000819050919050565b610da581610d92565b82525050565b6000602082019050610dc06000830184610d9c565b92915050565b600069ffffffffffffffffffff82169050919050565b610de581610dc6565b8114610df057600080fd5b50565b600081519050610e0281610ddc565b92915050565b610e1181610d92565b8114610e1c57600080fd5b50565b600081519050610e2e81610e08565b92915050565b600081519050610e4381610c4f565b92915050565b600080600080600060a08688031215610e6557610e64610c40565b5b6000610e7388828901610df3565b9550506020610e8488828901610e1f565b9450506040610e9588828901610e34565b9350506060610ea688828901610e34565b9250506080610eb788828901610df3565b9150509295509295909350565b600082825260208201905092915050565b7f496e76616c696420707269636520646174610000000000000000000000000000600082015250565b6000610f0b601283610ec4565b9150610f1682610ed5565b602082019050919050565b60006020820190508181036000830152610f3a81610efe565b9050919050565b7f4e487b7100000000000000000000000000000000000000000000000000000000600052601260045260246000fd5b7f4e487b7100000000000000000000000000000000000000000000000000000000600052601160045260246000fd5b6000610faa82610d92565b9150610fb583610d92565b925082610fc557610fc4610f41565b5b600160000383147f800000000000000000000000000000000000000000000000000000000000000083141615610ffe57610ffd610f70565b5b828205905092915050565b600061101482610c45565b915061101f83610c45565b925082820261102d81610c45565b9150828204841483151761104457611043610f70565b5b5092915050565b7f446f6573206e6f74206163636570742030206f7220736d616c6c6572206e756d60008201527f6265727320696e20616d6f756e74000000000000000000000000000000000000602082015250565b60006110a7602e83610ec4565b91506110b28261104b565b604082019050919050565b600060208201905081810360008301526110d68161109a565b9050919050565b7f53656e642045544820746f2062757920736f6d6520746f6b656e730000000000600082015250565b6000611113601b83610ec4565b915061111e826110dd565b602082019050919050565b6000602082019050818103600083015261114281611106565b9050919050565b7f5468657265206973206e6f7420656e6f75676820657468657220746f2062757960008201527f20746f6b656e7300000000000000000000000000000000000000000000000000602082015250565b60006111a5602783610ec4565b91506111b082611149565b604082019050919050565b600060208201905081810360008301526111d481611198565b9050919050565b60006020820190506111f06000830184610d5a565b92915050565b60006020828403121561120c5761120b610c40565b5b600061121a84828501610e34565b91505092915050565b7f496e73756666696369656e7420746f6b656e7320696e20636f6e747261637400600082015250565b6000611259601f83610ec4565b915061126482611223565b602082019050919050565b600060208201905081810360008301526112888161124c565b9050919050565b60008115159050919050565b6112a48161128f565b81146112af57600080fd5b50565b6000815190506112c18161129b565b92915050565b6000602082840312156112dd576112dc610c40565b5b60006112eb848285016112b2565b91505092915050565b60006112ff82610c45565b915061130a83610c45565b925082820190508082111561132257611321610f70565b5b92915050565b600061133382610c45565b91507fffffffffffffffffffffffffffffffffffffffffffffffffffffffffffffffff820361136557611364610f70565b5b600182019050919050565b7f536f6d656e7465206f20646f6e6f20646f20636f6e747261746f000000000000600082015250565b60006113a6601a83610ec4565b91506113b182611370565b602082019050919050565b600060208201905081810360008301526113d581611399565b9050919050565b60006113f76113f26113ed84610d28565b610ca8565b610d28565b9050919050565b6000611409826113dc565b9050919050565b600061141b826113fe565b9050919050565b61142b81611410565b82525050565b60006040820190506114466000830185611422565b6114536020830184610cfe565b9392505050565b600060608201905061146f6000830186610cfe565b61147c6020830185610cfe565b6114896040830184610cfe565b94935050505056fea26469706673582212208a6b9c94a5b6d22f2fc196263f29128fa7e1a7fd571fe1366d00f5abb2bfd71e64736f6c634300081b0033",
  "linkReferences": {},
  "deployedLinkReferences": {}
}